:020000040800F2
:1000000000800020751F0008751E0008771E00087C
:10001000791E00087B1E00087D1E000800000000FD
:100020000000000000000000000000007F1E00082B
:10003000811E000800000000831E0008851E0008C5
:10004000C51F0008C51F0008C51F0008C51F000800
:10005000C51F0008C51F0008C51F0008C51F0008F0
:10006000C51F0008C51F0008C51F0008C51F0008E0
:10007000C51F0008C51F0008C51F0008C51F0008D0
:10008000C51F000800000000C51F0008C51F0008AC
:10009000C51F0008C51F0008C51F0008C51F0008B0
:1000A000C51F0008C51F0008891E0008C51F0008DD
:1000B000A11E0008C51F0008B11E0008C51F0008CA
:1000C000C51F0008C51F0008C51F0008C51F000880
:1000D000C51F0008C51F0008C11E0008C51F000875
:1000E000C51F0008C51F0008C51F0008C51F000860
:1000F000C51F0008C51F0008C51F0008000000003C
:1001000000000000C51F000800000000C51F000817
:10011000C51F000800000000C51F0008C51F00081B
:10012000C51F0008C51F0008C51F0008C51F00081F
:10013000C51F00080000000000000000C51F0008E7
:10014000C51F0008C51F00080000000000000000D7
:10015000000000000000000000000000000000009F
:10016000000000000000000000000000C51F0008A3
:10017000C51F000800000000000000000000000093
:1001800000000000C51F0008000000000000000083
:10019000000000000000000000000000000000005F
:1001A0000000000000000000C51F0008C51F000877
:1001B000C51F0008C51F0008C51F0008000000007B
:1001C00000000000C51F0008000000000000000043
:0801D000C51F0008C51F00084F
:1002000010B5054C237833B9044B13B10448AFF350
:1002100000800123237010BDB809002000000000F9
:1002200070A9000808B5034B1BB103490348AFF39D
:10023000008008BD00000000BC09002070A9000873
:1002400081F0004102E000BF83F0004330B54FEA87
:1002500041044FEA430594EA050F08BF90EA020FF4
:100260001FBF54EA000C55EA020C7FEA645C7FEA87
:10027000655C00F0E2804FEA5454D4EB5555B8BFAA
:100280006D420CDD2C4480EA020281EA030382EA1B
:10029000000083EA010180EA020281EA0303362DAD
:1002A00088BF30BD11F0004F4FEA01314FF4801C80
:1002B0004CEA113102D0404261EB410113F0004F92
:1002C0004FEA03334CEA133302D0524263EB430349
:1002D00094EA050F00F0A780A4F10104D5F1200EE7
:1002E0000DDB02FA0EFC22FA05F2801841F1000142
:1002F00003FA0EF2801843FA05F359410EE0A5F116
:1003000020050EF1200E012A03FA0EFC28BF4CF046
:10031000020C43FA05F3C01851EBE37101F00045FC
:1003200007D54FF0000EDCF1000C7EEB00006EEB09
:100330000101B1F5801F1BD3B1F5001F0CD3490893
:100340005FEA30004FEA3C0C04F101044FEA4452EA
:1003500012F5800F80F09A80BCF1004F08BF5FEA71
:10036000500C50F1000041EB045141EA050130BD51
:100370005FEA4C0C404141EB0101013C28BFB1F563
:10038000801FE9D291F0000F04BF01460020B1FAAE
:1003900081F308BF2033A3F10B03B3F120020CDA81
:1003A0000C3208DD02F1140CC2F10C0201FA0CF05F
:1003B00021FA02F10CE002F11402D8BFC2F1200CC4
:1003C00001FA02F120FA0CFCDCBF41EA0C0190407A
:1003D000E41AA2BF01EB0451294330BD6FEA0404C3
:1003E0001F3C1CDA0C340EDC04F11404C4F12002AE
:1003F00020FA04F001FA02F340EA030021FA04F3C0
:1004000045EA030130BDC4F10C04C4F1200220FA16
:1004100002F001FA04F340EA0300294630BD21FA54
:1004200004F0294630BD94F0000F83F4801306BF1A
:1004300081F480110134013D4EE77FEA645C18BF0E
:100440007FEA655C29D094EA050F08BF90EA020FA5
:1004500005D054EA000C04BF1946104630BD91EA9D
:10046000030F1EBF0021002030BD5FEA545C05D1A0
:100470004000494128BF41F0004130BD14F58004DF
:100480003CBF01F5801130BD01F0004545F0FE4153
:1004900041F470014FF0000030BD7FEA645C1ABF88
:1004A000194610467FEA655C1CBF0B46024650EABF
:1004B000013406BF52EA033591EA030F41F40021EB
:1004C00030BD00BF90F0000F04BF0021704730B571
:1004D0004FF4806404F132044FF000054FF0000146
:1004E00050E700BF90F0000F04BF0021704730B507
:1004F0004FF4806404F1320410F0004548BF4042DC
:100500004FF000013EE700BF42004FEAE2014FEA30
:1005100031014FEA02701FBF12F07F4393F07F4F0B
:1005200081F06051704732F07F4208BF704793F00E
:100530007F4F04BF41F40021704730B54FF4607421
:1005400001F0004521F000411CE700BF50EA010224
:1005500008BF704730B54FF000050AE050EA0102CD
:1005600008BF704730B511F0004502D5404261EB3D
:1005700041014FF4806404F132045FEA915C3FF47E
:10058000D8AE4FF003025FEADC0C18BF03325FEA1B
:10059000DC0C18BF033202EBDC02C2F1200300FACC
:1005A00003FC20FA02F001FA03FE40EA0E0021FAF1
:1005B00002F11444BDE600BF80F0004002E000BF3D
:1005C00081F0004142001FBF5FEA410392EA030F3E
:1005D0007FEA226C7FEA236C6AD04FEA1262D2EB88
:1005E0001363C1BFD218414048404140B8BF5B428D
:1005F000192B88BF704710F0004F40F4000020F026
:100600007F4018BF404211F0004F41F4000121F03B
:100610007F4118BF494292EA030F3FD0A2F1010285
:1006200041FA03FC10EB0C00C3F1200301FA03F1C3
:1006300000F0004302D5494260EB4000B0F5000FE6
:1006400013D3B0F1807F06D340084FEA310102F1A5
:100650000102FE2A51D2B1F1004F40EBC25008BF57
:1006600020F0010040EA03007047490040EB000021
:10067000013A28BFB0F5000FEDD2B0FA80FCACF122
:10068000080CB2EB0C0200FA0CF0AABF00EBC2504F
:1006900052421843BCBFD0401843704792F0000F3D
:1006A00081F4000106BF80F400000132013BB5E790
:1006B0004FEA41037FEA226C18BF7FEA236C21D006
:1006C00092EA030F04D092F0000F08BF084670476B
:1006D00090EA010F1CBF0020704712F07F4F04D139
:1006E000400028BF40F00040704712F100723CBF4C
:1006F00000F50000704700F0004343F0FE4040F476
:10070000000070477FEA226216BF08467FEA236333
:100710000146420206BF5FEA412390EA010F40F41E
:10072000800070474FF0000304E000BF10F000436A
:1007300048BF40425FEA000C08BF704743F0964351
:1007400001464FF000001CE050EA010208BF70476C
:100750004FF000030AE000BF50EA010208BF7047F3
:1007600011F0004302D5404261EB41015FEA010C08
:1007700002BF84460146002043F0B64308BFA3F100
:100780008053A3F50003BCFA8CF2083AA3EBC253E2
:1007900010DB01FA02FC634400FA02FCC2F1200201
:1007A000BCF1004F20FA02F243EB020008BF20F038
:1007B0000100704702F1200201FA02FCC2F120029E
:1007C00050EA4C0021FA02F243EB020008BF20EA93
:1007D000DC7070474FF0FF0C1CEAD0521EBF1CEAC1
:1007E000D15392EA0C0F93EA0C0F6FD01A4480EAAF
:1007F000010C400218BF5FEA41211ED04FF0006398
:1008000043EA501043EA5111A0FB01310CF00040C3
:10081000B1F5000F3EBF490041EAD3715B0040EAE9
:10082000010062F17F02FD2A1DD8B3F1004F40EBB9
:10083000C25008BF20F00100704790F0000F0CF08C
:10084000004C08BF49024CEA502040EA51207F3A50
:10085000C2BFD2F1FF0340EAC250704740F400002B
:100860004FF00003013A5DDC12F1190FDCBF00F01C
:1008700000407047C2F10002410021FA02F1C2F1CA
:10088000200200FA02FC5FEA310040F1000053EA66
:100890004C0308BF20EADC70704792F0000F00F0B4
:1008A000004C02BF400010F4000F013AF9D040EABA
:1008B0000C0093F0000F01F0004C02BF490011F44E
:1008C000000F013BF9D041EA0C018FE70CEAD1534C
:1008D00092EA0C0F18BF93EA0C0F0AD030F0004CCC
:1008E00018BF31F0004CD8D180EA010000F0004080
:1008F000704790F0000F17BF90F0004F084691F03E
:10090000000F91F0004F14D092EA0C0F01D1420277
:100910000FD193EA0C0F03D14B0218BF084608D140
:1009200080EA010000F0004040F0FE4040F400008A
:10093000704740F0FE4040F4400070474FF0FF0C1D
:100940001CEAD0521EBF1CEAD15392EA0C0F93EA64
:100950000C0F69D0A2EB030280EA010C49024FEAB6
:10096000402037D04FF0805343EA111143EA10136F
:100970000CF000408B4238BF5B0042F17D024FF427
:10098000000C8B4224BF5B1A40EA0C00B3EB510F02
:1009900024BFA3EB510340EA5C00B3EB910F24BFEB
:1009A000A3EB910340EA9C00B3EBD10F24BFA3EB70
:1009B000D10340EADC001B0118BF5FEA1C1CE0D138
:1009C000FD2A3FF650AF8B4240EBC25008BF20F0EB
:1009D000010070470CF0004C4CEA50207F32C2BF3F
:1009E000D2F1FF0340EAC250704740F400004FF0DC
:1009F0000003013A37E792F0000F00F0004C02BF0D
:100A0000400010F4000F013AF9D040EA0C0093F0D6
:100A1000000F01F0004C02BF490011F4000F013B30
:100A2000F9D041EA0C0195E70CEAD15392EA0C0F98
:100A300008D142027FF47DAF93EA0C0F7FF470AFD0
:100A4000084676E793EA0C0F04D14B023FF44CAF13
:100A500008466EE730F0004C18BF31F0004CCAD1A8
:100A600030F000427FF45CAF31F000437FF43CAFE4
:100A70005FE700BF4FEA4002B2F1FE4F0FD34FF0E5
:100A80009E03B3EB12620DD94FEA002343F00043FB
:100A900010F0004F23FA02F018BF404270474FF0A9
:100AA0000000704712F1610F01D1420205D110F030
:100AB000004008BF6FF0004070474FF000007047E3
:100AC00053B94AB9002908BF00281CBF4FF0FF31B5
:100AD0004FF0FF3000F074B9ADF1080C6DE904CEB1
:100AE00000F006F8DDF804E0DDE9022304B0704709
:100AF0002DE9F047089E0D4604468846002B4DD14F
:100B00008A42944668D9B2FA82F252B101FA02F3EB
:100B1000C2F1200120FA01F10CFA02FC41EA0308BB
:100B200094404FEA1C45210CB8FBF5FE1FFA8CF7E8
:100B300005FB1E8341EA03430EFB07F199420BD9E3
:100B40001CEB03030EF1FF3080F01E81994240F24E
:100B50001B81AEF1020E63445B1AA4B2B3FBF5F045
:100B600005FB103344EA034400FB07F7A7420AD908
:100B70001CEB040400F1FF3380F00881A74240F22F
:100B8000058164440238E41B40EA0E4000211EB196
:100B9000D4400023C6E90043BDE8F0878B4208D962
:100BA000002E00F0EE800021C6E900050846BDE8F1
:100BB000F087B3FA83F100294AD1AB4202D38242D3
:100BC00000F2F980841A65EB030301209846002E99
:100BD000E2D0C6E90048DFE702B9FFDEB2FA82F2EE
:100BE000002A40F09180A1EB0C054FEA1C471FFA48
:100BF0008CFE0121B5FBF7F307FB1350250C45EAEA
:100C000000450EFB03F0A84208D91CEB050503F1D3
:100C1000FF3802D2A84200F2CB8043462D1AA4B27C
:100C2000B5FBF7F007FB105544EA05440EFB00FE48
:100C3000A64508D91CEB040400F1FF3502D2A645F5
:100C400000F2BB802846A4EB0E0440EA03409EE776
:100C5000C1F120078B4022FA07FC4CEA030C20FA72
:100C600007F405FA01F31C43FD404FEA1C4900FA62
:100C700001F3B5FBF9F8200C1FFA8CFE09FB18559F
:100C800040EA054508FB0EF0A84202FA01F20BD932
:100C90001CEB050508F1FF3A80F08880A84240F27D
:100CA0008580A8F1020865442D1AA4B2B5FBF9F0BD
:100CB00009FB105544EA054500FB0EFEAE4508D978
:100CC0001CEB050500F1FF346CD2AE456AD9023841
:100CD000654440EA0840A0FB0294A5EB0E05A5423E
:100CE000C846A64656D353D05EB1B3EB080265EBB7
:100CF0000E0505FA07F722FA01F3CD401F43C6E9B6
:100D000000750021BDE8F087C2F1200320FA03F14D
:100D10000CFA02FC25FA03F395400D434FEA1C47F9
:100D20001FFA8CFEB3FBF7F107FB11302B0C43EAE3
:100D3000004301FB0EF0984204FA02F408D91CEBC0
:100D4000030301F1FF382FD298422DD902396344B1
:100D50001B1AADB2B3FBF7F007FB103345EA0345AE
:100D600000FB0EF3AB4208D91CEB050500F1FF3880
:100D700016D2AB4214D902386544ED1A40EA01415B
:100D800038E73146304607E78646E5E61846FAE694
:100D90004B45A9D2B9EB020864EB0C0E0138A3E76E
:100DA0004046EAE7204694E74146D1E7D0467BE754
:100DB000023B654432E7084609E76444023842E7EB
:100DC000704700BF000000000000000000000000AD
:100DD00001F0FF01102A2BDB10F0070F08D010F8EC
:100DE000013B013A8B422DD010F0070F42B3F6D1F0
:100DF000F0B441EA012141EA014122F007047FF009
:100E000000070023F0E80256083C85EA010586EA5F
:100E1000010685FA47F5A3FA87F586FA47F6A5FA9B
:100E200087F68EB9EED1F0BC01F0FF0102F00702A7
:100E300032B110F8013B013A83EA010313B1F8D152
:100E40000020704701387047002D06BF3546033833
:100E5000073815F0010F07D1013015F4807F02BF6C
:100E6000013015F4C03F0130F0BC0138704700BFBD
:100E7000844641EA000313F003036DD1403A41D3A5
:100E800051F8043B40F8043B51F8043B40F8043B64
:100E900051F8043B40F8043B51F8043B40F8043B54
:100EA00051F8043B40F8043B51F8043B40F8043B44
:100EB00051F8043B40F8043B51F8043B40F8043B34
:100EC00051F8043B40F8043B51F8043B40F8043B24
:100ED00051F8043B40F8043B51F8043B40F8043B14
:100EE00051F8043B40F8043B51F8043B40F8043B04
:100EF00051F8043B40F8043B51F8043B40F8043BF4
:100F0000403ABDD2303211D351F8043B40F8043B93
:100F100051F8043B40F8043B51F8043B40F8043BD3
:100F200051F8043B40F8043B103AEDD20C3205D3A3
:100F300051F8043B40F8043B043AF9D2043208D09B
:100F4000D2071CBF11F8013B00F8013B01D30B880D
:100F500003806046704700BF082A13D38B078DD0EB
:100F600010F003038AD0C3F10403D21ADB071CBFBD
:100F700011F8013B00F8013B80D331F8023B20F827
:100F8000023B7BE7043AD9D3013A11F8013B00F860
:100F9000013BF9D20B7803704B7843708B788370E8
:100FA00060467047000000000000000000000000E4
:100FB0000000000000000000000000000000000031
:100FC00090F800F06DE9024520F007016FF0000C89
:100FD00010F0070491F820F040F049804FF0000431
:100FE0006FF00700D1E9002391F840F000F108000C
:100FF00082FA4CF2A4FA8CF283FA4CF3A2FA8CF344
:101000004BBBD1E9022382FA4CF200F10800A4FAAA
:101010008CF283FA4CF3A2FA8CF3E3B9D1E90423FE
:1010200082FA4CF200F10800A4FA8CF283FA4CF335
:10103000A2FA8CF37BB9D1E9062301F1200182FAEF
:101040004CF200F10800A4FA8CF283FA4CF3A2FAF5
:101050008CF3002BC6D0002A04BF04301A4612BA03
:10106000B2FA82F2FDE8024500EBD2007047D1E906
:10107000002304F00305C4F100004FEAC50514F095
:10108000040F91F840F00CFA05F562EA05021CBF66
:1010900063EA050362464FF00004A9E770B54FF01C
:1010A000FF0C4CF4E06C1CEA11541DBF1CEA1355F4
:1010B00094EA0C0F95EA0C0F00F0DEF82C4481EA5C
:1010C000030621EA4C5123EA4C5350EA013518BF7C
:1010D00052EA033541F4801143F4801338D0A0FB69
:1010E00002CE4FF00005E1FB02E506F00042E0FB16
:1010F00003E54FF00006E1FB03569CF0000F18BF1C
:101100004EF0010EA4F1FF04B6F5007F64F54074C3
:1011100004D25FEA4E0E6D4146EB060642EAC62156
:1011200041EA55514FEAC52040EA5E504FEACE2EC3
:10113000B4F1FD0C88BFBCF5E06F1ED8BEF1004FC6
:1011400008BF5FEA500E50F1000041EB045170BD42
:1011500006F0004646EA010140EA020081EA030186
:10116000B4EB5C04C2BFD4EB0C0541EA045170BD82
:1011700041F480114FF0000E013C00F3AB8014F1FC
:10118000360FDEBF002001F0004170BDC4F1000445
:10119000203C35DA0C341BDC04F11404C4F12005C6
:1011A00000FA05F320FA04F001FA05F240EA020021
:1011B00001F0004221F0004110EBD37021FA04F657
:1011C00042EB06015EEA430E08BF20EAD37070BD11
:1011D000C4F10C04C4F1200500FA04F320FA05F070
:1011E00001FA04F240EA020001F0004110EBD37072
:1011F00041F100015EEA430E08BF20EAD37070BDE2
:10120000C4F1200500FA05F24EEA020E20FA04F3BA
:1012100001FA05F243EA020321FA04F001F0004169
:1012200021FA04F220EA020000EBD3705EEA430EDA
:1012300008BF20EAD37070BD94F0000F0FD101F009
:101240000046400041EB010111F4801F08BF013C42
:10125000F7D041EA060195F0000F18BF704703F080
:101260000046520043EB030313F4801F08BF013D07
:10127000F7D043EA0603704794EA0C0F0CEA1355C3
:1012800018BF95EA0C0F0CD050EA410618BF52EA7D
:101290004306D1D181EA030101F000414FF0000083
:1012A00070BD50EA410606BF1046194652EA430691
:1012B00019D094EA0C0F02D150EA013613D195EA05
:1012C0000C0F05D152EA03361CBF104619460AD14D
:1012D00081EA030101F0004141F0FE4141F4700157
:1012E0004FF0000070BD41F0FE4141F4780170BD47
:1012F00070B54FF0FF0C4CF4E06C1CEA11541DBFAC
:101300001CEA135594EA0C0F95EA0C0F00F0A7F8AD
:10131000A4EB050481EA030E52EA03354FEA0131DA
:1013200000F088804FEA03334FF0805545EA1313ED
:1013300043EA12634FEA022245EA111545EA1065B5
:101340004FEA00260EF000419D4208BF964244F14C
:10135000FD0404F5407402D25B084FEA3202B61A6B
:1013600065EB03055B084FEA32024FF480104FF43F
:10137000002CB6EB020E75EB030E22BFB61A7546B3
:1013800040EA0C005B084FEA3202B6EB020E75EB46
:10139000030E22BFB61A754640EA5C005B084FEAAE
:1013A0003202B6EB020E75EB030E22BFB61A75467B
:1013B00040EA9C005B084FEA3202B6EB020E75EB86
:1013C000030E22BFB61A754640EADC0055EA060E47
:1013D00018D04FEA051545EA16754FEA06164FEA8A
:1013E000C30343EA52734FEAC2025FEA1C1CC0D136
:1013F00011F4801F0BD141EA00014FF000004FF0C3
:10140000004CB6E711F4801F04BF01430020B4F183
:10141000FD0C88BFBCF5E06F3FF6AFAEB5EB030C3B
:1014200004BFB6EB020C5FEA500C50F1000041EB38
:10143000045170BD0EF0004E4EEA113114EB5C0405
:10144000C2BFD4EB0C0541EA045170BD41F48011D8
:101450004FF0000E013C90E645EA060E8DE60CEAE0
:10146000135594EA0C0F08BF95EA0C0F3FF43BAFFD
:1014700094EA0C0F0AD150EA01347FF434AF95EAB4
:101480000C0F7FF425AF104619462CE795EA0C0F98
:1014900006D152EA03353FF4FDAE1046194622E765
:1014A00050EA410618BF52EA43067FF4C5AE50EA3F
:1014B00041047FF40DAF52EA43057FF4EBAE12E72F
:1014C0004FF0FF3C06E000BF4FF0010C02E000BF10
:1014D0004FF0010C4DF804CD4FEA410C7FEA6C5CF3
:1014E0004FEA430C18BF7FEA6C5C1BD001B050EA96
:1014F000410C0CBF52EA430C91EA030F02BF90EA81
:10150000020F0020704710F1000F91EA030F58BF3F
:10151000994208BF90422CBFD8176FEAE37040F0A1
:10152000010070474FEA410C7FEA6C5C02D150EA3F
:10153000013C07D14FEA430C7FEA6C5CD6D152EAFA
:10154000033CD3D05DF8040B704700BF84461046BF
:1015500062468C461946634600E000BF01B5FFF7BE
:10156000B7FF002848BF10F1000F01BD4DF808ED8E
:10157000FFF7F4FF0CBF012000205DF808FB00BF5F
:101580004DF808EDFFF7EAFF34BF012000205DF8B9
:1015900008FB00BF4DF808EDFFF7E0FF94BF012006
:1015A00000205DF808FB00BF4DF808EDFFF7CEFF07
:1015B00094BF012000205DF808FB00BF4DF808ED46
:1015C000FFF7C4FF34BF012000205DF808FB00BF17
:1015D0004FEA410C7FEA6C5C02D150EA013C0AD12F
:1015E0004FEA430C7FEA6C5C02D152EA033C02D121
:1015F0004FF0000070474FF0010070474FEA410282
:1016000012F5001215D211D56FF47873B3EB625254
:1016100012D94FEAC12343F0004343EA505311F07B
:10162000004F23FA02F018BF404270474FF000000D
:10163000704750EA013005D111F0004008BF6FF04B
:10164000004070474FF00000704700BF2DE9F041A7
:10165000044608461E461146FEF7B2FF05462061C5
:10166000636A73B96169FEF7ADFF3146FFF7B2F8FF
:101670004FF07C51FFF7AEF80146E069FEF7A2FF9C
:10168000E061A769D4F814804FF081414046FFF72C
:10169000A1F801463846FEF793FF0746174928464A
:1016A000FFF798F801463846FEF78CFF07463146AB
:1016B0003046FEF787FF01463846FFF73FF90646FA
:1016C0002062C4F81880656121682846FFF782F817
:1016D0000546E1696068FFF77DF801462846FEF798
:1016E00071FF0546A1683046FFF774F801462846A9
:1016F000FEF768FFFFF7BEF9BDE8F081000040404B
:1017000070B588B00024039404940594069407945B
:10171000174BDA6C42F00102DA64DA6C02F0010273
:101720000192019ADA6C42F00202DA64DB6C03F097
:1017300002030293029B0F4D22464FF4C8712846C4
:1017400000F01EFE0126039604940223059303A9CC
:101750004FF0904000F026FD4FF4C87303930496B9
:101760000594069403A9284600F01CFD08B070BD3E
:10177000001002400004004810B514460A2392B23B
:10178000024802F0FAFE204610BD00BF340B0020D4
:1017900008B5FEF7CBFF0549FFF7D0F80449FFF77E
:1017A00019F84FF07A51FFF715F808BD0000FA4418
:1017B0000000B44330B583B0044602682F4B9A4210
:1017C00009D02368B3F1804F08D022682C4B9A428D
:1017D00042D003B030BD00F005FCF2E7294B1B6896
:1017E000586A00B2284A108000225A62FFF7D0FFE0
:1017F000264D2968FEF7E6FE02462860244B25495F
:1018000009682548FFF722FF0546B0F5FA7F10DD8D
:10181000214B01225A624FF4FA75002280211F48A1
:1018200000F0AEFD1E4B1B68002DB8BF6D42DD639E
:10183000CBE710F5FA7F09DA174B01225A62194DEE
:1018400001228021154800F09BFDEBE7124B00229E
:101850005A629042E1DCF3E70C4B1868FEF754FE45
:1018600004460D460B4B1868FEF74EFECDE900010D
:1018700022462B460C4803F06BF8AAE700480140CB
:1018800000080040040A0020D8090020D4090020E4
:101890000AD7233CC40B0020DC09002000040048C8
:1018A0009C0A00200CFEFFFF88A9000872B6FEE724
:1018B00000B58DB02422002103A802F0F7FF002319
:1018C0000093019302931248124A026043608360BE
:1018D0004FF6FF72C2600361436183610323039388
:1018E00001230593099303A901F0F8FE58B90023D9
:1018F0000093019302936946054802F093F920B9D9
:101900000DB05DF804FBFFF7D1FFFFF7CFFF00BF7D
:10191000040A0020002C014008B51548154B03604F
:101920004FF4E133436000238360C36003610C2202
:1019300042618361C36103624362836202F0C6FE57
:1019400070B900210A4802F03DFF58B9002108484B
:1019500002F05DFF40B9064802F015FF30B908BD3E
:10196000FFF7A4FFFFF7A2FFFFF7A0FFFFF79EFF1F
:10197000340B00200044004000B58FB000230A93D0
:101980000B930C930D930793089309930093019382
:10199000029303930493059306931F481F4A026022
:1019A00007224260836040F2E732C26003618361D4
:1019B00001F034FE28BB4FF480530A930AA916485D
:1019C00001F0D8FFF8B9144801F058FEE8B9002337
:1019D0000793099307A9104802F024F9B8B96023C6
:1019E00000930023019302930493082269460A4856
:1019F00001F016FF68B9084800F080F90FB05DF8F3
:101A000004FBFFF753FFFFF751FFFFF74FFFFFF70F
:101A10004DFFFFF74BFF00BF9C0A00200004004071
:101A200000B589B0002304930593069307930193AF
:101A30000293039313484FF0804202604F224260AA
:101A4000836042F20F72C2600361836101F0E6FDC0
:101A500090B94FF48053049304A90A4801F08AFF17
:101A600060B900230193039301A9064802F0DAF854
:101A700030B909B05DF804FBFFF718FFFFF716FF58
:101A8000FFF714FF500A002000B589B0002304932B
:101A90000593069307930193029303931348144A03
:101AA00002609F224260836042F20F72C260036153
:101AB000836101F0B3FD90B94FF48053049304A9FE
:101AC0000A4801F057FF60B900230193039301A96D
:101AD000064802F0A7F830B909B05DF804FBFFF73B
:101AE000E5FEFFF7E3FEFFF7E1FE00BFE80A002096
:101AF0000008004000B595B03822002106A802F089
:101B0000D5FE0023019302930393049305934FF4AE
:101B1000007000F03BFC022306934FF480720992A0
:101B200040220A920D930E9301220F920A221092E4
:101B300011931293139306A800F0DAFC78B90F23DF
:101B4000019303230293002303930493059302213B
:101B500001A800F085FF20B915B05DF804FBFFF780
:101B6000A5FEFFF7A3FE000008B5134B1B6800217C
:101B7000986802F001FF00F026FAFFF7BBFFFFF7BD
:101B8000BFFDFFF795FEFFF7C7FEFFF7F5FEFFF776
:101B900047FFFFF779FF094B4FF080421A600022A0
:101BA0005A609A600821064801F090FF044B1B68B8
:101BB000C822DA63FAE700BF0C000020DC0900202D
:101BC0009C0A002082B00A4B1A6E42F001021A668B
:101BD0001A6E02F001020092009A9A6D42F0805251
:101BE0009A659B6D03F080530193019B02B070478F
:101BF0000010024000B589B00023039304930593BD
:101C0000069307930268184B9A4202D009B05DF818
:101C100004FB03F564431A6E42F400621A661A6EFE
:101C200002F400620192019ADA6C42F00102DA6475
:101C3000DB6C03F001030293029B4FF440730393A8
:101C400002230493012305930623079303A94FF06E
:101C5000904000F0A7FA00220F211A2000F0E6F9C8
:101C60001A2000F01BFAD1E7002C014000B585B026
:101C70000368B3F1804F08D01D4A934219D01D4A22
:101C8000934221D005B05DF804FB03F504339A6D4F
:101C900042F001029A659B6D03F001030193019BE1
:101CA000002211461C2000F0C1F91C2000F0F6F9BA
:101CB000E8E7114B9A6D42F002029A659B6D03F0C2
:101CC00002030293029BDDE70B4B9A6D42F0040284
:101CD0009A659B6D03F004030393039B0022114656
:101CE0001E2000F0A3F91E2000F0D8F9CAE700BFBB
:101CF00000040040000800400010024000B587B01A
:101D000000230193029303930493059302680D4B00
:101D10009A4202D007B05DF804FB03F50333DA6C96
:101D200042F00202DA64DB6C03F002030093009BD2
:101D30000123019302230293059301A9024800F0B5
:101D400031FAE7E7000400400004004810B598B0FD
:101D50000446002113911491159116911791442274
:101D600002A802F0A3FD22681B4B9A4201D018B0D2
:101D700010BD0223029302A800F0B6FF48BB174B28
:101D80009A6D42F400329A659A6D02F40032009224
:101D9000009ADA6C42F00102DA64DB6C03F00103B2
:101DA0000193019B0C231393022314930024159495
:101DB00016940723179313A94FF0904000F0F2F9FF
:101DC00022462146262000F031F9262000F066F94F
:101DD000CDE7FFF76BFDD2E7004400400010024062
:101DE00030B589B004461E4B1A6E42F480221A6642
:101DF0001B6E03F480230193019B02A903A800F04A
:101E000055FF00F041FF03461648A0FB03239B0C3F
:101E1000013B1548154A026040F2E732C260436058
:101E200000230361836001F0F9FB054610B12846E9
:101E300009B030BD0C4801F03FFA05460028F6D144
:101E40001A2000F02BF90F2C01D90125EFE7002211
:101E500021461A2000F0EAF8054B1C60E7E700BFB6
:101E60000010024083DE1B43C80B002000480140E5
:101E700008000020FEE7FEE7FEE7FEE7FEE770470A
:101E8000704770477047000008B5034801F05BFADF
:101E9000024801F058FA08BD040A0020C80B0020CF
:101EA00008B5024801F04FFA08BD00BF500A0020F3
:101EB00008B5024801F047FA08BD00BFE80A002053
:101EC00008B5024801F04AFF08BD00BF340B0020EE
:101ED0000120704708B502F0BFFC162303604FF0E5
:101EE000FF3008BD08B54FF0FF31FFF7F3FFFEE705
:101EF00070B50C461646002506E0AFF3008021467B
:101F000001F8010B01350C46B542F6DB304670BDD9
:101F10004FF0FF3070474FF400534B600020704784
:101F2000012070470020704710B503460C4A0D4948
:101F30000D48006840B10C4800680344521A9342AF
:101F400006D8094A136010BD0748084C0460F2E740
:101F500002F082FC0C2303604FF0FF30F3E700BF78
:101F60000080002000040000140C0020680C0020F9
:101F7000704700000D4885460D480E490E4A002363
:101F800002E0D458C4500433C4188C42F9D30B4A2D
:101F90000B4C002301E013600432A242FBD3FFF795
:101FA000E7FF02F05FFCFFF7DFFDFEE700800020A7
:101FB00000000020B8090020E8AD0008B8090020A2
:101FC000640C0020FEE710B5032000F01DF80F2080
:101FD000FFF706FF10B10124204610BD0446FFF7AD
:101FE000F1FDF9E7034A1368034909680B441360DC
:101FF000704700BF180C002004000020014B186837
:10200000704700BF180C0020074AD36823F4E06330
:102010001B041B0C000200F4E060034343F0BF63A9
:1020200043F40033D360704700ED00E000B5194B76
:10203000DB68C3F30223C3F1070CBCF1040F28BF14
:102040004FF0040C03F1040EBEF1060F18D9033B48
:102050004FF0FF3E0EFA0CFC21EA0C0199400EFAFB
:1020600003F322EA0303194300280BDB0901C9B279
:1020700000F1604000F5614080F800135DF804FB5A
:102080000023E5E700F00F000901C9B2024B195423
:10209000F4E700BF00ED00E014ED00E0002807DBEE
:1020A00000F01F02400901239340024A42F8203009
:1020B000704700BF00E100E0034690F82520D2B24F
:1020C000022A09D00422C2630120012283F82520BC
:1020D000002283F82420704701680A6822F00E026B
:1020E0000A60816C0A6822F480720A6001680A68DA
:1020F00022F001020A60426C02F01F01006C012212
:102100008A404260DA6C196D51605A6D42B11168B3
:1021100021F4807111609A6DD96D51600020D4E76F
:102120000020D2E708B590F82530DBB2022B09D0A9
:102130000423C363012380F82530002280F8242083
:10214000184608BD0268136823F00E031360026886
:10215000136823F001031360826C136823F4807307
:102160001360436C03F01F02016C012393404B602A
:10217000C36C026D5A60436D33B11A6822F48072E9
:102180001A60836DC26D5A60012380F825300023E8
:1021900080F82430836B13B198470020D1E70020EA
:1021A000CFE7000070B582B0002365E085685E006F
:1021B0000324B44025EA0405CC68B4402C43846071
:1021C000446824EA0C0C4C68C4F300149C4044EAB4
:1021D0000C04446061E0DD08083550F8256003F028
:1021E00007044FEA840C0F2404FA0CF426EA040EC8
:1021F0000C6904FA0CF444EA0E0440F8254063E04C
:10220000052400E0002404FA0EF42C430CF1020C27
:10221000574D45F82C40574CA568D44325EA020693
:10222000D1F804C01CF4801F01D042EA0506514DCC
:10223000AE60ED6804EA0506D1F804C01CF4001F86
:1022400001D042EA05064B4DEE606D6804EA0506D2
:10225000D1F804C01CF4003F01D042EA0506454D08
:102260006E602D682C404E6816F4803F01D042EA23
:102270000504404A146001330A6832FA03F474D04A
:102280004FF0010C0CFA03FC1CEA0202F3D04C687C
:1022900004F00304013C012C88D94C6804F00304C9
:1022A000032C0CD0C4685D004FF0030C0CFA05FC45
:1022B00024EA0C0C8C68AC4044EA0C04C4604C6802
:1022C00004F00304022C86D004684FEA430E4FF05A
:1022D000030C0CFA0EFC24EA0C0C4C6804F003040A
:1022E00004FA0EF444EA0C0404604C6814F4403F11
:1022F000C1D0214C256E45F001052566246E04F001
:1023000001040194019C4FEA930C0CF10205184C56
:1023100054F8255003F003044FEA840E0F2404FA06
:102320000EF425EA0405B0F1904F3FF46BAF134C67
:10233000A04212D004F58064A04210D004F580645D
:10234000A0420ED004F58064A0420CD004F5806455
:10235000A0423FF455AF062455E7012453E7022479
:1023600051E703244FE704244DE702B070BD00BFDE
:102370000000014000040140001002400004004839
:102380000AB181617047816270470000002836D130
:102390003E4B1B6803F4C063B3F5806F08D03B4A23
:1023A000D2F8803023F48073C2F880300020704768
:1023B000364AD2F8803023F48073C2F88030136834
:1023C00023F4C06343F400731360314B1B68322263
:1023D00002FB03F32F4AA2FB03239B0C013300E013
:1023E000013B2A4A526912F4806F01D0002BF7D1C9
:1023F000264B5B6913F4806F44D100207047B0F521
:10240000007F08D0214A136823F4C06343F480633B
:102410001360002070471D4B1B6803F4C063B3F5C5
:10242000806F08D0194AD2F8803043F48073C2F824
:10243000803000207047154AD2F8803043F4807312
:10244000C2F88030136823F4C06343F40073136050
:102450000F4B1B68322202FB03F30E4AA2FB03233D
:102460009B0C013300E0013B084A526912F4806F73
:1024700001D0002BF7D1054B5B6913F4806F03D1BA
:102480000020704703207047032070470070004011
:102490000000002083DE1B43124BDA6802F00302C7
:1024A000D868C0F30310431C032A11D00E48B0FBB8
:1024B000F3F00C4BDB68C3F3062303FB00F0094B7E
:1024C000DB68C3F3416301335B00B0FBF3F070479B
:1024D0000648B0FBF3F0034BDB68C3F3062303FBB2
:1024E00000F0ECE7001002400024F40000127A0033
:1024F000002800F0548270B582B00446036813F0DF
:10250000010F37D0A44A936803F00C03D26802F09D
:1025100003020C2B23D0082B23D06368B3F5803F34
:102520004ED0B3F5A02F51D09B4B1A6822F48032C5
:102530001A601A6822F480221A606368002B52D055
:10254000FFF75CFD0546944B1B6813F4003F11D167
:10255000FFF754FD401B6428F5D9032028E2032A25
:10256000D9D18D4B1B6813F4003F03D06368002B57
:1025700000F01782236813F0020F5DD0864A93683B
:1025800003F00C03D26802F003020C2B3AD0042BA8
:102590003AD0E368002B75D07F4A136843F4807308
:1025A0001360FFF72BFD05467B4B1B6813F4806F10
:1025B0005FD1FFF723FD401B0228F5D90320F7E187
:1025C000754A136843F480331360B6E703F1804320
:1025D000A3F53C331A6842F480221A601A6842F468
:1025E00080321A60A9E7FFF709FD05466A4B1B68B0
:1025F00013F4003FBED0FFF701FD401B6428F5D95E
:102600000320D5E1022AC2D1634B1B6813F4806F0B
:1026100003D0E368002B00F0C6815F4A536823F0C3
:10262000FE43216943EA016353605C4B1868FFF77E
:10263000D7FB002840F0B981236813F0080F4CD075
:1026400063699BB3544AD2F8943043F00103C2F853
:102650009430FFF7D3FC05464F4BD3F8943013F07A
:10266000020F3AD1FFF7CAFC401B0228F4D903201D
:102670009EE1494A536823F0FE43216943EA01631E
:102680005360D9E7444A136823F480731360FFF75B
:10269000B5FC0546404B1B6813F4806FCCD0FFF7A8
:1026A000ADFC401B0228F5D9032081E13A4AD2F85B
:1026B000943023F00103C2F89430FFF79FFC0546E5
:1026C000354BD3F8943013F0020F06D0FFF796FC89
:1026D000401B0228F4D903206AE1236813F0040F99
:1026E00000F081802C4B9B6D13F0805F36D12A4B1C
:1026F0009A6D42F080529A659B6D03F0805301936E
:10270000019B0125264B1B6813F4807F28D0A3680A
:10271000012B39D0052B45D01F4BD3F8902022F048
:102720000102C3F89020D3F8902022F00402C3F8ED
:102730009020A368002B43D0FFF760FC0646164BA1
:10274000D3F8903013F0020F4CD1FFF757FC801BE9
:1027500041F288339842F2D9032029E10025D1E7DC
:102760000F4A136843F480731360FFF747FC064673
:102770000B4B1B6813F4807FC9D1FFF73FFC801B14
:102780000228F5D9032013E1034AD2F8903043F030
:102790000103C2F89030CCE700100240080000208E
:1027A000007000408A4BD3F8902042F00402C3F836
:1027B0009020D3F8902042F00102C3F89020B8E7AF
:1027C000FFF71CFC0646824BD3F8903013F0020F43
:1027D00008D0FFF713FC801B41F288339842F2D9EE
:1027E0000320E5E0E5B9236813F0200F35D0A36995
:1027F000E3B1774AD2F8983043F00103C2F8983039
:10280000FFF7FCFB0546724BD3F8983013F0020F2C
:1028100023D1FFF7F3FB401B0228F4D90320C7E0C4
:102820006B4A936D23F080539365DCE7684AD2F8D6
:10283000983023F00103C2F89830FFF7DFFB05461C
:10284000634BD3F8983013F0020F06D0FFF7D6FB96
:10285000401B0228F4D90320AAE0E369002B00F012
:10286000A6805B4A926802F00C020C2A69D0022B07
:102870001DD0574B1A6822F080721A60DA6822F075
:102880000302DA60DA6822F0887222F48032DA60B9
:10289000FFF7B4FB04464E4B1B6813F0007F4ED08D
:1028A000FFF7ACFB001B0228F5D9032080E0484A63
:1028B000136823F080731360FFF7A0FB0546444BB9
:1028C0001B6813F0007F06D0FFF798FB401B02281F
:1028D000F5D903206CE03E4AD3683E491940236A8B
:1028E000606A013843EA0013A06A43EA0023206BC0
:1028F0004008013843EA4053606B4008013843EA1E
:102900004063E06A43EAC0630B43D360136843F05B
:1029100080731360D36843F08073D360FFF76EFB5E
:1029200004462B4B1B6813F0007F06D1FFF766FBB4
:10293000001B0228F5D903203AE0002038E00020EF
:1029400036E0012B36D0224BDB6803F00301226A0C
:10295000914231D103F0F002616A0139B2EB011FFB
:102960002CD103F4FE42A16AB2EB012F28D103F06F
:102970007842E16AB2EBC16F24D103F4C001226B4B
:102980005208013AB1EB425F1ED103F0C063626BA3
:102990005208013AB3EB426F18D1002008E0012041
:1029A0007047012004E0012002E0012000E0002047
:1029B00002B070BD0120FBE70120F9E70120F7E735
:1029C0000120F5E70120F3E70120F1E70120EFE71F
:1029D000001002400C809F011E4B9B6803F00C030B
:1029E000042B33D01B4B9B6803F00C03082B2FD018
:1029F000184B9B6803F00C030C2B01D00020704790
:102A0000144BDA6802F00302D868C0F30310431CC9
:102A1000032A11D01048B0FBF3F00E4BDB68C3F370
:102A2000062303FB00F00B4BDB68C3F34163013368
:102A30005B00B0FBF3F070470848B0FBF3F0054BC8
:102A4000DB68C3F3062303FB00F0ECE702487047A2
:102A500002487047001002400024F40000127A007F
:102A6000002800F0E680F8B50C460546744B1B685C
:102A700003F00F038B420BD2714A136823F00F034C
:102A80000B431360136803F00F038B4240F0D380B5
:102A90002E6816F001065FD06B68032B2FD0022B37
:102AA0004DD0684B1B6813F4806F00F0C680FFF7B1
:102AB00093FF654B98424DD9624A936823F0F00327
:102AC00043F08003936080265E4A936823F00303FB
:102AD00069680B439360FFF791FA0746594B9B686F
:102AE00003F00C036A68B3EB820F35D0FFF786FA68
:102AF000C01B41F288339842F0D9032078E0514B53
:102B00001B6813F0007F01D1012071E0FFF7C4FCC6
:102B10004D4B98421AD94B4B9B6813F0F00F05D0E0
:102B20002E6816F00206CFD0AB688BB9454A936881
:102B300023F0F00343F0800393608026C4E7414B09
:102B40001B6813F4003FB2D1012051E00026BBE71F
:102B50000026B9E70026B7E72B6813F0020F48D02C
:102B600013F0040F04D0374A936843F4E063936092
:102B70002B6813F0080F06D0324A936823F47C5375
:102B800043F4E06393602F4A936823F0F003A9684D
:102B90000B4393602A4B1B6803F00F03A34230D80A
:102BA0002B6813F0040F06D0264A936823F4E063E1
:102BB000E9680B4393602B6813F0080F07D0214A94
:102BC000936823F46053296943EAC1039360FFF7D4
:102BD00003FF1C4B9B68C3F303131C4AD35C03F035
:102BE0001F03D8401A4B18601A4B1868FFF7F8F803
:102BF000F8BD802ECED1134A936823F0F003936082
:102C0000C8E70F4A136823F00F0323431360FFF74D
:102C1000F5F906460A4B1B6803F00F03A342BFD029
:102C2000FFF7ECF9801B41F288339842F2D9032078
:102C3000DEE7012070470120DAE70120D8E700BF76
:102C4000002002400010024000B4C40498A900080B
:102C50000000002008000020014B1868704700BFEA
:102C60000000002008B5FFF7F7FF054B9B68C3F392
:102C70000223044AD35C03F01F03D84008BD00BF01
:102C800000100240A8A9000808B5FFF7E5FF054BB2
:102C90009B68C3F3C223044AD35C03F01F03D840EC
:102CA00008BD00BF00100240A8A900080F23036060
:102CB0000B4B9A6802F0030242609A6802F0F0023D
:102CC00082609A6802F4E062C2609B68DB0803F4E9
:102CD000E0630361034B1B6803F00F030B60704755
:102CE0000010024000200240F0B583B004460368A3
:102CF00013F4002F69D0AE4B9B6D13F0805F1ED193
:102D0000AB4B9A6D42F080529A659B6D03F08053F5
:102D10000193019B0126A74A136843F48073136053
:102D2000FFF76CF90546A34B1B6813F4807F08D1AD
:102D3000FFF764F9401B0228F5D9032502E00026BD
:102D4000E9E7002545BB9A4BD3F8903013F4407364
:102D500015D0226C9A4212D0954AD2F8903023F4C2
:102D60004073D2F8901041F48031C2F89010D2F83C
:102D7000901021F48031C2F89010C2F8903013F016
:102D8000010F10D145B98A4AD2F8903023F440732C
:102D9000216C0B43C2F89030C6B1854A936D23F085
:102DA0008053936512E0FFF729F90746804BD3F86B
:102DB000903013F0020FE5D1FFF720F9C01B41F26C
:102DC00088339842F2D90325DCE70025236813F005
:102DD000010F08D0764AD2F8883023F003036168E7
:102DE0000B43C2F88830236813F0020F08D0704AF2
:102DF000D2F8883023F00C03A1680B43C2F8883066
:102E0000236813F0040F08D0694AD2F8883023F001
:102E10003003E1680B43C2F88830236813F0080FD1
:102E200008D0634AD2F8883023F0C00321690B43ED
:102E3000C2F88830236813F0200F08D05C4AD2F81B
:102E4000883023F4406361690B43C2F888302368FB
:102E500013F0400F08D0564AD2F8883023F440537C
:102E6000A1690B43C2F88830236813F0800F08D0A3
:102E70004F4AD2F8883023F44043E1690B43C2F84B
:102E80008830236813F4807F08D0494AD2F888300C
:102E900023F44033216A0B43C2F88830236813F4CB
:102EA000007F08D0424AD2F8883023F44023616A78
:102EB0000B43C2F88830236813F4806F0CD03C4A6F
:102EC000D2F8883023F44013A16A0B43C2F888304B
:102ED000A36AB3F5801F57D0236813F4006F0CD09A
:102EE000334AD2F8883023F44003E16A0B43C2F836
:102EF0008830E36AB3F5800F4BD0236813F4805F0A
:102F00000CD02B4AD2F8883023F04073216B0B434E
:102F1000C2F88830236BB3F1807F3FD0236813F46D
:102F2000005F0CD0224AD2F8883023F04063616BF6
:102F30000B43C2F88830636BB3F1006F33D0236862
:102F400013F4804F0CD01A4AD2F8883023F0406333
:102F5000A16B0B43C2F88830A36BB3F1006F2BD089
:102F6000236813F4004F0CD0114AD2F8883023F0B4
:102F70004053E16B0B43C2F88830E36BB3F1805FE1
:102F80001FD0284603B0F0BDD36843F48013D3604C
:102F9000A2E7D36843F48013D360AEE7D36843F469
:102FA0008013D360BAE7D36843F48013D360C6E7D5
:102FB0000010024000700040D36843F48013D360D7
:102FC000CEE7D36843F48033D360DAE730B4036AE2
:102FD00023F001030362036A4568826922F48032A8
:102FE00022F073020C68224323F002038C6823430F
:102FF0001D4CA0420FD004F50064A0420BD004F594
:103000004064A04207D004F58064A04203D004F5D8
:103010008064A04205D123F00803CC68234323F049
:103020000403114CA0420FD004F50064A0420BD061
:1030300004F54064A04207D004F58064A04203D0A8
:1030400004F58064A04207D125F4407C4C6944EA31
:103050000C0C8D6945EA0C05456082614A68426343
:10306000036230BC704700BF002C014030B4036ADB
:1030700023F480730362036A4468C26922F48032D5
:1030800022F073020D682A4323F400738D6843EA2B
:103090000523184DA84203D005F50065A84206D1C6
:1030A00023F40063CD6843EA052323F48063114DC4
:1030B000A8420FD005F50065A8420BD005F5406584
:1030C000A84207D005F58065A84203D005F58065C4
:1030D000A84207D124F4405C4C694CEA041C8C697A
:1030E0004CEA04144460C2614A68C263036230BCA3
:1030F000704700BF002C014030B4036A23F48053B2
:103100000362036A4468C26922F0807222F4E642D4
:103110000D6842EA052223F400538D6843EA053323
:10312000174DA84203D005F50065A84206D123F447
:103130000043CD6843EA053323F48043104DA84291
:103140000FD005F50065A8420BD005F54065A842F3
:1031500007D005F58065A84203D005F58065A84233
:1031600007D124F4404C4C694CEA841C8C694CEA2D
:1031700084144460C2614A680264036230BC7047D0
:10318000002C014030B4036A23F480330362036AE5
:103190004468026D22F4803222F070020D682A43E6
:1031A00023F400338D6843EA05430F4DA8420FD046
:1031B00005F50065A8420BD005F54065A84207D08B
:1031C00005F58065A84203D005F58065A84204D1C5
:1031D00024F480344D6944EA0524446002654A6859
:1031E0008264036230BC7047002C014030B4036A33
:1031F00023F480130362036A4468026D22F0807234
:1032000022F4E0420D6842EA052223F400138D689F
:1032100043EA05530F4DA8420FD005F50065A842BB
:103220000BD005F54065A84207D005F58065A8429A
:1032300003D005F58065A84204D124F480244D69AB
:1032400044EA8524446002654A68C264036230BC73
:10325000704700BF002C014010B4036A046A24F0D8
:1032600001040462846924F0F00C4CEA021223F099
:103270000A030B438261036210BC704710B4046AF6
:1032800024F0100404628469036A24F4704C4CEA4C
:10329000023223F0A00343EA01138261036210BCEF
:1032A0007047836823F4401323F070030B4343F00B
:1032B000070383607047000090F83D30DBB2012BBC
:1032C00032D1022380F83D300268D36843F0010315
:1032D000D3600368174A934218D0B3F1804F15D0DA
:1032E000A2F59432934211D002F5806293420DD040
:1032F00002F59632934209D002F54062934205D01E
:103300001A6842F001021A600020704799680A4A60
:103310000A40062A0AD0B2F5803F09D01A6842F066
:1033200001021A600020704701207047002070479A
:1033300000207047002C01400700010070477047D3
:1033400070477047704710B5044603681A6912F059
:10335000020F12D0DA6812F0020F0ED06FF00202E4
:103360001A610123037703689B6913F0030F00F0D0
:103370009F80FFF7E5FF0023237723681A6912F087
:10338000040F13D0DA6812F0040F0FD06FF00402AC
:103390001A610223237723689B6913F4407F00F0AE
:1033A0008D802046FFF7CCFF0023237723681A691E
:1033B00012F0080F12D0DA6812F0080F0ED06FF07A
:1033C00008021A61042323772368DB6913F0030FD3
:1033D0007BD02046FFF7B4FF0023237723681A69C8
:1033E00012F0100F12D0DA6812F0100F0ED06FF03A
:1033F00010021A61082323772368DB6913F4407FE6
:103400006AD02046FFF79CFF0023237723681A69C0
:1034100012F0010F03D0DA6812F0010F63D12368B4
:103420001A6912F0800F03D0DA6812F0800F61D1B0
:1034300023681A6912F4807F03D0DA6812F0800FD3
:103440005FD123681A6912F0400F03D0DA6812F0D6
:10345000400F5DD123681A6912F0200F03D0DA689B
:1034600012F0200F5BD123681A6912F4801F03D079
:10347000DA6812F4801F59D123681A6912F4001F08
:1034800003D0DA6812F4001F57D123681A6912F4C6
:10349000800F03D0DA6812F4800F55D123681A69BF
:1034A00012F4000F03D0DA6812F4000F53D110BDEC
:1034B000FFF745FF2046FFF744FF5CE72046FFF794
:1034C0003EFF2046FFF73DFF6EE72046FFF737FF40
:1034D0002046FFF736FF7FE72046FFF730FF204604
:1034E000FFF72FFF90E76FF001021A612046FEF709
:1034F00061F994E76FF080021A61204600F0DDFB6D
:1035000096E76FF480721A61204600F0D7FB98E7C7
:103510006FF040021A612046FFF714FF9AE76FF040
:1035200020021A61204600F0C7FB9CE76FF480126E
:103530001A61204600F0C3FB9EE76FF400121A6187
:10354000204600F0BDFBA0E76FF480021A61204620
:1035500000F0B7FBA2E76FF400021A61204600F00A
:10356000B1FBA4E703682C4A90420ED0B0F1804F23
:103570000BD0A2F59432904207D002F580629042BF
:1035800003D002F59632904203D123F070034A68CB
:103590001343214A90421AD0B0F1804F17D0A2F5C0
:1035A0009432904213D002F5806290420FD002F51F
:1035B000963290420BD002F54062904207D002F55D
:1035C0008062904203D002F58062904203D123F4DE
:1035D0004073CA68134323F080034A6913430360AE
:1035E0008B68C3620B6883620B4B98420FD003F564
:1035F000006398420BD003F54063984207D003F56F
:103600008063984203D003F58063984201D10B692F
:103610000363012343617047002C014060B310B580
:10362000044690F83D3013B3022384F83D30214620
:1036300051F8040BFFF796FF012384F8483084F813
:103640003E3084F83F3084F8403084F8413084F8CC
:10365000423084F8433084F8443084F8453084F8AC
:10366000463084F8473084F83D30002010BD80F8A3
:103670003C30FEF7FBFAD7E70120704760B310B586
:10368000044690F83D3013B3022384F83D302146C0
:1036900051F8040BFFF766FF012384F8483084F8E3
:1036A0003E3084F83F3084F8403084F8413084F86C
:1036B000423084F8433084F8443084F8453084F84C
:1036C000463084F8473084F83D30002010BD80F843
:1036D0003C30FFF733FED7E701207047002857D072
:1036E00070B50D46044690F83D30002B4BD00223B8
:1036F00084F83D302268936823F4A03323F0070355
:103700009360214651F8040BFFF72CFF21688A686B
:103710008B690E6A2868104323F4407C2CF0030C5C
:10372000AA68AB6942EA032343EA0C0323F47C430F
:1037300023F0FC03EA69D5F80CC04CEA022C4CEAF1
:10374000030C2A6A13032A6943EA021343EA0C03AF
:1037500026F0AA066A686D6942EA0512324388605B
:1037600021688B6123681A62012384F8483084F849
:103770003E3084F83F3084F8443084F8453084F893
:103780003D30002070BD80F83C30FEF733FAAEE7E4
:103790000120704730B4036A23F010030362036A08
:1037A0004468826922F0807222F4E6420D6842EA9F
:1037B000052223F020038D6843EA0513174DA84224
:1037C00003D005F50065A84206D123F08003CD683B
:1037D00043EA051323F04003104DA8420FD005F52E
:1037E0000065A8420BD005F54065A84207D005F555
:1037F0008065A84203D005F58065A84207D124F46E
:10380000406C4C694CEA840C8C694CEA840444603A
:1038100082614A688263036230BC7047002C0140B9
:1038200038B590F83C30012B00F0958004460D46E9
:10383000012380F83C30142A00F28880DFE802F08F
:103840000B8686861F86868634868686488686868A
:103850005D86868671000068FFF7B8FB2268936971
:1038600043F0080393612268936923F00403936192
:103870002268936929690B439361002067E000681F
:10388000FFF788FF2268936943F40063936122681D
:10389000936923F48063936122689369296943EAF9
:1038A00001239361002052E00068FFF7DFFB2268EC
:1038B000D36943F00803D3612268D36923F004037A
:1038C000D3612268D36929690B43D36100203EE0AC
:1038D0000068FFF711FC2268D36943F40063D361E9
:1038E0002268D36923F48063D3612268D36929698C
:1038F00043EA0123D361002029E00068FFF742FC7E
:103900002268136D43F0080313652268136D23F0DA
:10391000040313652268136D29690B4313650020A6
:1039200015E00068FFF762FC2268136D43F4006342
:1039300013652268136D23F4806313652268136D89
:10394000296943EA01231365002000E001200023D8
:1039500084F83C3038BD0220FCE710B4846824F4BD
:103960007F4C42EA03220A4342EA0C02826010BC06
:103970007047000090F83C30012B00F08F8010B5AC
:103980000446012380F83C30022380F83D30026871
:103990009068434B034093600B68702B55D031D82F
:1039A000502B6CD00CD9602B2AD1CA68496820688A
:1039B000FFF764FC60212068FFF773FC002035E00E
:1039C000402B0AD1CA6849682068FFF745FC4021AE
:1039D0002068FFF766FC002028E05BD8202B07D08A
:1039E00003D9302B04D0012020E00BB1102B05D1DE
:1039F00019462068FFF755FC002017E0012015E06C
:103A0000012013E0B3F5005F2CD00BD9254A934277
:103A1000EED012D9244A9342EAD030329342E7D012
:103A2000012003E0B3F5805F36D10020012384F844
:103A30003D30002384F83C3010BDB3F1101FD7D0C7
:103A4000103A9342D4D00120F0E7CB684A688968E5
:103A50002068FFF782FF2268936843F07703936042
:103A60000020E3E7CB684A6889682068FFF775FFA4
:103A70002268936843F4804393600020D6E7CA68C5
:103A800049682068FFF7E8FB50212068FFF709FC30
:103A90000020CBE70120C9E70120C7E702207047DB
:103AA0008800CEFF300010004000100001F01F0120
:103AB000012303FA01FC036A23EA0C030362036A8D
:103AC00002FA01F10B4303627047000010B504468F
:103AD0000846002947D194F83E30DBB2013B18BFBD
:103AE0000123002B40F09480002867D1022384F842
:103AF0003E30012201462068FFF7D8FF2368474A7D
:103B000093420FD002F5006293420BD002F540625F
:103B1000934207D002F58062934203D002F580629F
:103B2000934203D15A6C42F400425A6423683B4AE0
:103B300093425FD0B3F1804F5CD0A2F594329342B0
:103B400058D002F58062934254D002F596329342E7
:103B500050D002F5406293424CD01A6842F0010204
:103B60001A60002055E004290CD0082911D00C2936
:103B700016D010291BD094F84330DBB2013B18BF9C
:103B80000123AEE794F83F30DBB2013B18BF0123BD
:103B9000A7E794F84030DBB2013B18BF0123A0E750
:103BA00094F84130DBB2013B18BF012399E794F848
:103BB0004230DBB2013B18BF012392E7042809D051
:103BC00008280BD00C280DD010280FD0022384F821
:103BD00043308EE7022384F83F308AE7022384F8DB
:103BE000403086E7022384F8413082E7022384F8DC
:103BF00042307EE799680A4A0A40062A0AD0B2F59E
:103C0000803F09D01A6842F001021A60002000E0EB
:103C1000012010BD0020FCE70020FAE7002C014045
:103C20000700010090F83C30012B40D030B4012354
:103C300080F83C30022380F83D3002685368946875
:103C40001C4DAA4203D005F50065AA4203D123F416
:103C500070034D682B4323F0007323F070030D684D
:103C60002B4353600368134A934212D0B3F1804F41
:103C70000FD0A2F5943293420BD002F580629342AA
:103C800007D002F59632934203D002F54062934288
:103C900004D124F080048A6814439C60012380F8D6
:103CA0003D30002380F83C30184630BC704702207D
:103CB000704700BF002C0140704770477047704745
:103CC000704770477047026852E8003F23F49073D2
:103CD00042E800310029F6D1026802F1080353E8F6
:103CE000003F23F0805323F00103083242E8003103
:103CF0000029F1D1C36E012B06D02023C0F88830F3
:103D00000023C36603677047026852E8003F23F050
:103D1000100342E800310029F6D1EEE7704708B5FC
:103D2000026852E8003F23F0400342E800310029D6
:103D3000F6D12023C0F8843000234367FFF7EEFF5D
:103D400008BD704708B5806A0023A0F85E30A0F86F
:103D50005630FFF7F6FF08BD7047000070B5044607
:103D60000168CB6908688D6840F60F021A4008D1D7
:103D700013F0200F05D010F0200F34D115F0805F24
:103D800031D12AB1954A2A4033D1954E304230D1B3
:103D9000E26E012A00F0C38013F4801F03D015F4F3
:103DA000800F40F05B8113F0800F07D010F0800F80
:103DB00040F05B8115F4000F40F0578113F0400F85
:103DC00003D010F0400F40F0578113F4000F03D0E0
:103DD00010F0804F40F0548113F0807F02D0002813
:103DE000C0F2528170BD236F002BFBD02046984754
:103DF000F8E713F0010F09D010F4807F06D00126F8
:103E00000E62D4F88C103143C4F88C1013F0020FFA
:103E10000BD015F0010F08D0216802260E62D4F8ED
:103E20008C1041F00401C4F88C1013F0040F0BD077
:103E300015F0010F08D0216804260E62D4F88C100A
:103E400041F00201C4F88C1013F0080F0BD010F0F1
:103E5000200F00D13AB1226808211162D4F88C20D9
:103E60000A43C4F88C2013F4006F0CD010F0806F5C
:103E700009D022684FF400611162D4F88C2042F01E
:103E80002002C4F88C20D4F88C20002AAAD013F089
:103E9000200F09D010F0200F02D115F0805F03D061
:103EA000236F0BB120469847D4F88C2023689B6879
:103EB00013F0400F02D112F0280F29D02046FFF74F
:103EC00002FF23689B6813F0400F1DD0226802F1A7
:103ED000080353E8003F23F04003083242E8003172
:103EE0000029F3D1E36F5BB13E4A9A63E06FFEF7BE
:103EF00019F900283FF476AFE06F836B984771E7BC
:103F00002046FFF71EFF6DE72046FFF71AFF69E71F
:103F10002046FFF716FF0023C4F88C3062E713F049
:103F2000100F3FF439AF10F0100F3FF435AF1023EE
:103F30000B6223689B6813F0400F55D0E26F136843
:103F40005B689BB2002B3FF44DAFB4F85C10994214
:103F50007FF648AFA4F85E3013681B6813F0200F9B
:103F600031D1226852E8003F23F4807342E80031E7
:103F70000029F6D1226802F1080353E8003F23F03C
:103F80000103083242E800310029F3D1226802F12E
:103F9000080353E8003F23F04003083242E80031B1
:103FA0000029F3D12023C4F888300023E366226877
:103FB00052E8003F23F0100342E800310029F6D117
:103FC000E06FFEF779F8B4F85C10B4F85E309BB29D
:103FD000C91A89B22046FFF7BFFE03E701000010AF
:103FE00020010004453D0008B4F85C10B4F85E30D0
:103FF0009BB2C91A89B2B4F85E309BB2002B3FF471
:10400000F1AE00293FF4EEAE226852E8003F23F4FF
:10401000907342E800300028F6D1226802F10803CC
:1040200053E8003F23F0805323F00103083242E8B5
:1040300000300028F1D12023C4F888300023E36643
:104040002367226852E8003F23F0100342E8003063
:104050000028F6D12046FFF77FFEC3E64FF4801319
:104060000B62204600F08CFBBCE6636F002B3FF434
:10407000B9AE20469847B5E62046FFF750FEB1E6B8
:10408000204600F07FFBADE6204600F07AFBA9E673
:1040900070B504460168836802691343426913439B
:1040A000C269134308688B4A024013430B602268BD
:1040B000536823F44053E1680B435360A1692268BD
:1040C000854B9A4201D0236A1943936823F06E43CB
:1040D00023F430630B4393602268D36A23F00F0309
:1040E000616A0B43D36223687C4A934223D07C4AA3
:1040F000934234D07B4A93424AD07B4A934259D070
:10410000754A934268D0102273498B4200F0958023
:10411000E069B0F5004F00F0D280082A00F24F812C
:10412000DFE812F01201340110014D0137014D0199
:104130004D014D013A0102F55842D2F8882002F0B3
:104140000302032A09D8DFE802F002045C06012218
:10415000DAE70422D8E70822D6E71022D4E702F5EE
:10416000E632D2F8882002F00C020C2A0ED8DFE8E2
:1041700002F0070D0D0D090D0D0D4A0D0D0D0B0073
:104180000022C1E70422BFE70822BDE71022BBE7F7
:1041900002F5E432D2F8882002F03002202A34D02E
:1041A00004D8A2B3102A34D10422ADE7302A32D188
:1041B0000822A9E702F5E232D2F8882002F0C00214
:1041C000802A2AD004D852B3402A2AD104229BE75D
:1041D000C02A28D1082297E702F5C832D2F88820F1
:1041E00002F44062B2F5006F1FD005D8FAB1B2F503
:1041F000806F1ED1042287E7B2F5406F1BD10822E1
:1042000082E7022280E702227EE702227CE7002288
:104210007AE7102278E7102276E7022274E700227C
:1042200072E7102270E710226EE702226CE700228C
:104230006AE7102268E7102266E7082A00F2AF80DA
:10424000DFE802F008AD3BAD38ADADAD05004FF491
:10425000004004E0FEF706FD002800F0A280626A3C
:10426000224B33F81220B0FBF2F3656805EB4501F1
:10427000994200F29880B3EB053F00F29680002649
:1042800033463146FCF71CFC090241EA106100028A
:104290006B08C0182A46334641F10001FCF710FCB8
:1042A000A0F54072124B9A4200F281802368D860D8
:1042B000304662E0FEF790FBCEE70E48CFE7082AD3
:1042C00077D8DFE802F0193905763C7676761D005E
:1042D000084815E0F369FFCF008000400038014036
:1042E0000044004000480040004C0040B0A90008D5
:1042F000FFFC0F000024F400FEF7B4FC00285AD0A5
:10430000626A324B33F81230B0FBF3F06268530844
:1043100003EB4000B0FBF2F0A0F110024FF6EF7398
:104320009A424AD883B223F00F03C0F342001843E5
:104330002368D860002020E0FEF7A6FCDEE7FEF749
:104340004BFBDBE7224803E0FEF78CFC002838D06B
:10435000626A1E4B33F81230B0FBF3F0636800EB77
:104360005300B0FBF3F0A0F110024FF6EF739A4246
:1043700029D8236880B2D86000200123A4F86A30CD
:10438000A4F8683000232367636770BDFEF77CFCE8
:10439000DCE7FEF721FBD9E74FF40040D8E7012026
:1043A000EBE70020E9E70120E7E70120E5E701204E
:1043B000E3E70120E1E70020DFE70120DDE701205E
:1043C000DBE70020D9E70120D7E700BFB0A900084C
:1043D0000024F400836A13F0010F06D002685368CA
:1043E00023F40033C16A0B435360836A13F0020F56
:1043F00006D00268536823F48033016B0B4353608B
:10440000836A13F0040F06D00268536823F48023F4
:10441000416B0B435360836A13F0080F06D00268A8
:10442000536823F40043816B0B435360836A13F09A
:10443000100F06D00268936823F48053C16B0B43BE
:104440009360836A13F0200F06D00268936823F408
:104450000053016C0B439360836A13F0400F0AD042
:104460000268536823F48013416C0B435360436C20
:10447000B3F5801F0BD0836A13F0800F06D002685B
:10448000536823F40023C16C0B43536070470268E8
:10449000536823F4C003816C0B435360EBE72DE9B1
:1044A000F84305460F4616469946DDF820802C68ED
:1044B000E46937EA04030CBF4FF0010C4FF0000C25
:1044C000B44557D1B8F1FF3FF1D0FDF797FDA0EB10
:1044D000090040452FD8B8F1000F2CD02B681A687E
:1044E00012F0040FE3D0DA6912F4006FDFD04FF45A
:1044F00000621A622A6852E8003F23F4D07342E84F
:1045000000310029F6D12A6802F1080353E8003F80
:1045100023F00103083242E800310029F3D12023BF
:10452000C5F88430C5F88830C5F88C30002385F88C
:10453000803003201FE02A6852E8003F23F4D07344
:1045400042E800310029F6D12A6802F1080353E855
:10455000003F23F00103083242E800310029F3D183
:104560002023C5F88430C5F88830002385F88030D2
:10457000032000E00020BDE8F8832DE9F04182B07F
:104580001E46D0F88430202B58D104460D46904664
:10459000002957D0002A57D090F88030012B55D0F1
:1045A000012380F880300023C0F88C302123C0F82C
:1045B0008430FDF723FD0746A4F85480A4F8568004
:1045C000A368B3F5805F05D04FF00008002384F89E
:1045D000803014E0236913B14FF00008F6E7A846D5
:1045E0000025F3E738F8023B2268C3F3080393621F
:1045F000B4F8562092B2013A92B2A4F85620B4F818
:1046000056309BB273B100963B4600228021204673
:10461000FFF745FFE0B9002DE4D015F8012B236822
:104620009A62E5E700963B46002240212046FFF7CC
:1046300036FF78B92023C4F8843000E0022002B0AD
:10464000BDE8F0810120FAE70120F8E70220F6E753
:104650000320F4E70320F2E730B583B004460023DB
:10466000C0F88C30FDF7CAFC05462268126812F0CB
:10467000080F0FD123681B6813F0040F18D12023F3
:10468000C4F88430C4F888300020E06684F88000E4
:1046900003B030BD6FF07E430093034600224FF419
:1046A00000112046FFF7FBFE0028E3D00320EFE7D0
:1046B0006FF07E4300932B4600224FF4800120468A
:1046C000FFF7EDFE0028DAD00320E1E778B310B55C
:1046D0000446D0F884300BB32423C4F88430226815
:1046E000136823F0010313602046FFF7D1FC012873
:1046F00013D0A36ABBB92268536823F49043536074
:104700002268936823F02A0393602268136843F0B9
:10471000010313602046FFF79FFF10BD80F8803033
:10472000FDF714FBD8E72046FFF754FEE3E701202E
:1047300070470000436E2BB90123A0F86A30A0F83F
:104740006830704730B403689A68C2F3426299686F
:10475000490F094D6B5CDB00084C615C93FBF1F386
:10476000A0F86A30AB5CDB00A25C93FBF2F3A0F82C
:10477000683030BC704700BFD0A90008C8A9000845
:1047800070477047704790F88030012B18D0012394
:1047900080F880302423C0F8843003681A681968D0
:1047A00021F00101196022F00052002343660168E4
:1047B0000A602022C0F8842080F8803018467047B4
:1047C0000220704738B590F88030012B1DD0044688
:1047D000012380F880302423C0F8843003681D68EA
:1047E0001A6822F001021A600268936823F060439D
:1047F00019439160FFF79EFF23681D602023C4F8D2
:104800008430002084F8800038BD0220FCE738B5F1
:1048100090F88030012B1DD00446012380F88030B1
:104820002423C0F8843003681D681A6822F001024E
:104830001A600268936823F0606319439160FFF780
:1048400079FF23681D602023C4F88430002084F899
:10485000800038BD0220FCE7014B1868704700BF9C
:104860000C00002070B50D4E0D4D761BB61006D015
:10487000002455F8043B01349847A642F9D1094E6B
:10488000094D761B06F074F8B61006D0002455F8D2
:10489000043B01349847A642F9D170BDDCAD000855
:1048A000DCAD0008E4AD0008DCAD0008830730B5DE
:1048B00048D0541E002A3FD0CAB2034601E0013C52
:1048C0003AD303F8012B9D07F9D1032C2DD9CDB292
:1048D00045EA05250F2C45EA054536D9A4F1100215
:1048E00022F00F0C03F1200EE6444FEA121C03F1F4
:1048F000100242E9045542E9025510327245F8D1DE
:104900000CF1010214F00C0F03EB021204F00F0C77
:1049100013D0ACF1040323F003030433134442F82F
:10492000045B9342FBD10CF003042CB1CAB21C44CB
:1049300003F8012B9C42FBD130BD64461346002C8A
:10494000F4D1F9E703461446BFE71A46A446E0E768
:104950000FB400B5074983B004AB086853F8042BC3
:104960008168019300F0E8F803B05DF804EB04B04F
:10497000704700BF0C00002000294FF480630CBF7B
:104980000222002200F000B82DE9F043694CD4F86F
:10499000008083B004460E4617461D46B8F1000F4E
:1049A00003D0D8F83830002B77D0022F05D0012F54
:1049B00000F2AC80002DC0F2A980636EDA0752D5F8
:1049C0002146404602F062FF216B41B104F14003F1
:1049D000994202D0404603F085F800232363B4F9DE
:1049E0000CC000231CF0800FA361636064D12CF421
:1049F0004A6C2CF0030C022FA4F80CC06AD001AB57
:104A00006A462146404603F013FAA3891843A08161
:104A1000002D2FD0002E2ED0D8F83830002B38D0D3
:104A2000009B2660AB42B4F90C301CBF43F400631A
:104A3000A381012F04BF43F00103A3819AB213F0B5
:104A40000803C4E904652CD0D1075DD56D42A5618A
:104A5000656E002315F00105A36027D000252846C8
:104A600003B0BDE8F083A3899B05A9D4A06D03F032
:104A70006BF9A5E7009D284603F00AFA06460028D0
:104A800047D0A38943F08003A381D8F83830002BA6
:104A9000C6D1404602F02EFFC2E7404602F02AFF90
:104AA00083E7A360656E15F00105D7D1930524D582
:104AB000284603B0BDE8F0832169404603F012F8B0
:104AC000B4F90CC02CF44A6C2CF0030C022FA4F89F
:104AD0000CC094D10025002204F14303A2600122FE
:104AE000C4E904322360636E4CF0020CD807A4F8CA
:104AF0000CC0DDD41CF4007FDAD1A06D03F026F9E0
:104B0000284603B0BDE8F083A560CBE74FF0FF3542
:104B1000CEE7DDF80090A94504D0484603F0B8F987
:104B2000064620B9B4F90CC04FF0FF35D3E74D4627
:104B3000A7E700BF0C0000202DE9F04FD5B01C46C0
:104B4000079191460546099003F0F6F8026817921E
:104B500010460E94FCF734FA16901DB1AB6B002B87
:104B600000F02A82079A536EDD0740F13881B2F9CE
:104B70000C2091B28F0409D4079B42F400529A8111
:104B800091B21A465B6E23F4005353660E0740F150
:104B9000CB80079B1B69002B00F0C68001F01A0335
:104BA0000A2B00F0CF8000242BAB4D46CDE92944E1
:104BB000CDE91944CDE91B441294289398461894E2
:104BC00000230B940024CDE914342B78002B00F043
:104BD0009D81AA4604E01AF8013F002B00F0C7802F
:104BE000252BF8D1BAEB050640F0C5809AF80030C5
:104BF000002B00F08B8100234FF0FF329AF8016008
:104C00008DF883300A930AF1010A08921F462B247B
:104C10004FF020090AF1010AA6F120035A2B00F2F5
:104C2000ED80DFE813F0EB02EB00EB00E602EB00B7
:104C3000EB00EB006A00EB00EB005C028002EB0093
:104C400067028A02EB0085025B005B005B005B0091
:104C50005B005B005B005B005B00EB00EB00EB00CC
:104C6000EB00EB00EB00EB007A01EB00F801D20166
:104C70007A017A017A01EB00EB00EB00EB00E10234
:104C8000EB00EB002D02EB00EB00EB000202EB006F
:104C9000A402EB00EB008307EB00EB00EB00EB0062
:104CA000EB00EB00EB00EB007A01EB00F801D40124
:104CB0007A017A017A01C702D401CD01EB00D40256
:104CC000EB006C022F02B502CD01EB0002027E0068
:104CD0008007EB00EB006107EB007E00A6F13003DC
:104CE00000221AF8016B02EB820203EB4202A6F1EA
:104CF0003003092BF5D90A928EE7DDF824B0584627
:104D000003F01AF843681B931846FCF759F91C90F6
:104D10000646584603F010F883681993002E40F0B9
:104D2000CD869AF8006075E7079D0998294601F03D
:104D3000ADFC002841F01C83A98901F01A030A2B5D
:104D40007FF431AF079AB2F90E30002BFFF62BAF8C
:104D5000536ED80702D4890541F13B810799099820
:104D600023464A4655B0BDE8F04F01F04FBCBAEBC0
:104D7000050600F0CB802A9B33442A93299B0133FC
:104D8000072BC8E90056299305DC08F108080B9B9E
:104D900033440B932AE70799099828AA03F0E4FF04
:104DA00080B90DF1AC08F2E70799099828AA03F039
:104DB000DBFF002800F09B800D9B1BB10998194672
:104DC00002F090FE079A536ED90740F1EA8093896A
:104DD0005B0601F1D9820B9855B0BDE8F08F079BB7
:104DE000B3F90C20900591B23FF5C4AE1D46986D05
:104DF00002F0AAFFB5F90C2091B2BBE6002E00F03C
:104E0000858000228DF8EC608DF883200123CDE9A8
:104E10000C32069308920F92139210923BAD17F04A
:104E2000020302D006990231069117F0840B07D1D4
:104E30000A990698A1EB0009B9F1000F00F37083FD
:104E40002A9C8AB1299A0DF1830101320134C8F8F4
:104E50000010072A4FF001012A942992C8F8041083
:104E600000F3B68308F1080883B1299B21AA013316
:104E70000234C8F80020072B4FF002022A9429932D
:104E8000C8F8042000F3B28308F10808BBF1800FD2
:104E900000F06982089B0C9AA3EB020BBBF1000F98
:104EA00000F3AA82FB0500F100820C9BC8F80430D5
:104EB0001C44299BC8F800500133072B2A942993DE
:104EC00000F3228308F10808780705D50A9B069AA3
:104ED0009D1A002D00F39683DDE90A2306998A4284
:104EE000ACBF9B185B180B93002C7FF45DAF0023C5
:104EF00029930D9B1BB10D99099802F0F3FD0DF15B
:104F0000AC0855462B78002B7FF463AE2A9B002B10
:104F100041F0D3810023299354E70E9B073323F0FC
:104F20000702F2E80234CDE91434DDE9143424F048
:104F300000440E92994618462146B54B4FF0FF3279
:104F4000FCF746FB002840F0EF84B14B4846214671
:104F50004FF0FF32FCF71EFB002840F0E584DDE94E
:104F6000140100220023FCF70BFB002840F06787A8
:104F70009DF88320A74DA84B27F080070321472EDB
:104F8000C8BF1D4600230D9306910C9108930F9303
:104F900013931093002A3FF442AF069B013306930C
:104FA0003DE7079B9B899A053FF512AF079CA06DD3
:104FB00002F0CCFEA3890BE7099802F09BFCD1E537
:104FC0009AF8006047F0200724E647F01007BA0679
:104FD0000E9B40F13B84073323F007031A465B68BE
:104FE00052F8084B0E929946002BC0F24C84089B55
:104FF000013300F0D88254EA090327F0800B40F017
:10500000D382089B002B40F0D4825F460023089394
:105010000C9354AD1DE10E9B002253F8041B8DF838
:1050200083208DF8EC100E93F0E60E9C089B54F84C
:10503000045B4FF000098DF88390002D00F09385FC
:105040005A1C00F051861A4649462846FBF7C0FE16
:105050000D90002801F00E810D9BCDF820905B1B78
:105060000C930E9423EAE3739DF883200693CDF806
:105070003490CDF83C90CDF84C90CDF8409089E735
:1050800047F0100717F0200900F0D2830E9B07337A
:1050900023F00703D3F8049053F8084B0E9327F43A
:1050A000806B002300228DF88320089A511C00F0A9
:1050B000B88054EA09012BF0800740F0B180002A43
:1050C00040F0F685002BA1D11BF001030C9300F0FA
:1050D000148430238DF84F310DF24F15B9E00E9B3B
:1050E00053F8042B0A92002A80F2DA830A9A0E936C
:1050F00052420A929AF8006047F004078AE5BD061A
:1051000000F1D184FC0600F1D885780600F1A5866F
:10511000B90540F1D2850E9B0B9953F8042B0E93E1
:1051200011705546EEE69AF800608DF8834071E5FF
:105130009AF8006047F080076CE5524612F8016B60
:105140002A2E01F03F82A6F13003092B924698BF28
:10515000002201F2BC801AF8016B02EB820203EB21
:105160004202A6F13003092BF5D9089254E547F025
:10517000100B1BF0200900F076830E9B073323F001
:105180000703D3F8049053F8084B0E93012389E7E3
:105190000E9B53F8044B0E93302378268DF8843001
:1051A0001E4B189347F0020B8DF885604FF00009F5
:1051B000022377E79AF80060682E03BF9AF801602F
:1051C00047F400770AF1010A47F0400722E59AF810
:1051D00000606C2E03BF9AF8016047F020070AF1C7
:1051E000010A47F0100715E59AF8006047F0080734
:1051F00010E59AF8006047F001070BE59DF8833051
:10520000002B7FF48EAD9AF800608DF8839001E555
:10521000FFFFEF7FDCA90008E0A90008ECA9000867
:10522000BB46012B00F0C081022B54AD20D1189A4F
:1052300004F00F032409D35C05F8013D44EA097426
:105240004FEA191954EA0903F2D154AB5B1B5F46CC
:105250000C9308990C989DF8832081424FF000032D
:10526000B8BF01460D9306910F931393109391E6E7
:1052700004F00703E40844EA49744FEAD9093033DB
:1052800054EA09012A4605F8013DF1D11BF0010F4E
:10529000DBD0302BD9D03023023A05F8013C54AB97
:1052A0009B1A5F460C931546D3E7652E40F3E680C4
:1052B000DDE9140100220023FCF758F9002800F072
:1052C000DC81299BBF4AC8F8002001330134012248
:1052D000072B2A942993C8F8042000F3CC8408F102
:1052E0000808229B129A934280F2D682169B179A44
:1052F0001C44C8E90023299B2A940133072B2993D6
:1053000000F3248408F10808129B5D1E002D7FF72E
:10531000DBAD102D299BDFF8B09240F3BD844946E8
:105320002246B946DDF824B0079C10260F4605E05A
:1053300008F10808103D102D40F3AA840133103203
:10534000072BC8E90076CDE92932F1DD28AA2146EC
:10535000584603F009FD00287FF42EADDDE929321F
:105360000DF1AC08E6E70A9B069AA3EB020BBBF132
:10537000000F7FF78FADBBF1100F299ADFF848922D
:105380002CDD1D9621464E46079CDDF82490102307
:1053900006E0ABF1100BBBF1100F08F108081ADDA5
:1053A00001321031072AC8E90063CDE92921F0DD77
:1053B00028AA214648460DF1AC0803F0D5FC002888
:1053C0007FF4FAACABF1100BBBF1100FDDE9292132
:1053D0004FF01003E4DCB1461D9E0C4601325C44E4
:1053E000072ACDE92924C8F80090C8F804B000F3D2
:1053F000A08308F108084DE5BBF1100F299ADFF8EA
:10540000C8912DDD41462046A8464C46079DDDF853
:105410002490102306E0ABF1100BBBF1100F01F14B
:10542000080119DD01321030072AC1E90043CDE936
:105430002920F0DD28AA2946484603F095FC0028DB
:105440007FF4BAACABF1100BBBF1100FDDE92920F2
:105450002BA94FF01003E5DC4546A14688460446DB
:1054600001325C44072ACDE92924C8F80090C8F825
:1054700004B000F3D08108F1080813E5129B012B5A
:1054800040F38081299EC8F8005001360134012381
:10549000072E2A942996C8F8043000F37C8308F17B
:1054A0000808169B179A01361C44072EC8E90023EA
:1054B000CDE9296400F37C8308F10808DDE91401D3
:1054C00000220023FCF752F8002840F07881129B5C
:1054D0000136013B01351C44072EC8F800502996BF
:1054E000C8F804302A9400F35D8108F108081A9B7B
:1054F000C8F8043001361C44072E24ABCDE92964DA
:10550000C8F800307FF7DEAC0799099828AA03F0A5
:105510002BFC00287FF450AC2A9C0DF1AC08D3E49E
:10552000B9F1100FDDE929212BDDCDE91D3B1F96D7
:10553000DDF824B04E461024A946079D04E0103E35
:10554000102E08F1080817DD0132204B1031072A10
:10555000C8E90034CDE92921F1DD28AA29465846B9
:105560000DF1AC0803F000FC00287FF425AC103EE0
:10557000102EDDE92921E7DCDDE91D3B4D46B14672
:105580001F9EC8F80490013209EB0104072A0F4955
:10559000C8F80010CDE9292400F351839DF8832039
:1055A00008F108084DE4BB460A2C79F1000380F0AD
:1055B0000C83303401238DF84F415F460C930DF27C
:1055C0004F1546E61CAA000830AA000820AA0008C9
:1055D000079909981D9328AA03F0C6FB00287FF4B9
:1055E000EBAB2A9C1D9B0DF1AC083DE40799099893
:1055F00028AA03F0B9FB00287FF4DEAB2A9C0DF14A
:10560000AC0843E4102D299B21DD099FDDF81C9097
:10561000102604E0103D102D08F1080817DD0133B5
:10562000BB4A1034072BC8E90026CDE92934F1DD47
:1056300028AA494638460DF1AC0803F095FB00282E
:105640007FF4BAAB103D102DDDE92934E7DC0133DE
:10565000AF4AC8F804502C44072BCDE92934C8F8C8
:1056600000207FF739AC0799099828AA03F07CFB42
:1056700000287FF4A1AB2A9C2EE42299002940F354
:105680001481DDF84090129B9945A8BF9946B9F165
:10569000000F0BDD299B01334C44072BC8E900594F
:1056A0002A94299300F39A8508F10808109EB9F10D
:1056B000000FA8BFA6EB0906002E00F34683DDF815
:1056C00040B07905AB4400F1CE84229B129A9342FC
:1056D00002DBFA0740F1B883169A17991444C8E917
:1056E0000012299A2A940132072A299200F383850D
:1056F00008F10808129AAE18A6EB0B06D51AAE42AE
:10570000A8BF2E46002E0DDD299BC8F800B001333E
:105710003444072BC8F804602A94299300F3F185D8
:1057200008F10808002EA8BFAD1B002D7FF7CCABF9
:10573000102D299BDFF8DC9140F3AE8249462246CA
:10574000B946DDF824B0079C10260F4605E008F1A5
:105750000808103D102D40F39B8201331032072BB7
:10576000C8E90076CDE92932F1DD28AA214658465C
:1057700003F0FAFA00287FF41FABDDE929320DF1BE
:10578000AC08E6E7FE073FF57DAE299EC8F800505D
:10579000013601340123072E2A942996C8F80430D3
:1057A0007FF7A3AE0799099828AA03F0DDFA00282D
:1057B0007FF402ABDDE929640DF1AC0897E6129B9A
:1057C0005D1E002D7FF793AE102DDFF8489140F35A
:1057D0007F8222460897099C079F4FF0100B05E037
:1057E00008F10808103D102D40F370820136103288
:1057F000072EC8E9009BCDE92962F1DD28AA3946C8
:10580000204603F0B1FA00287FF4D6AADDE9296228
:105810000DF1AC08E6E70799099828AA03F0A4FA65
:1058200000287FF4C9AA2A9C0DF1AC08FFF73ABB07
:1058300017F0100372D117F0400200F0BD820E9AEB
:1058400052F8044B0E929946A4B228E453F8044B44
:105850000E93FB0656D47D0651D544F3C0394B4612
:1058600024B2FFF7C1BB1BF0100340F036811BF0E0
:10587000400200F092820E9A52F8044B0E92994622
:10588000A4B201230EE42D2364428DF8833069EB2A
:105890004909BB46012308E4F8077FF515AB25E568
:1058A0009AF800600E93FFF7B5B9299B1A4AC8F819
:1058B0000020013301340122072B2A942993C8F8D0
:1058C000042000F3708408F10808002940F01E82CB
:1058D000129A07F0010313433FF4F6AA169B179997
:1058E000E218C8E90013299B2A920133072B299358
:1058F00000F3618308F1080819E254ADA9E4B80582
:1059000000F1B4824FEAE4794B46FFF76DBB00BF6C
:1059100020AA000830AA00081CAA00080E9B53F811
:10592000044B0E93FFF7BBBBDDE9140102460B46A7
:10593000FBF74EFE002840F0A085612E00F0508558
:10594000412E00F09982089B013326F02003069334
:1059500000F08F85472B00F07985DDE9141247F4BC
:1059600080730F931346002BC0F2ED850C93002338
:105970001D938B460D93069B462B00F04A84452BC6
:1059800000F04F850899019126A9049123A903915C
:1059900022A9029102210C9B099800915A4600F01D
:1059A00083FF069B472B054640F01C8617F0010F2E
:1059B000B9460F9F40F0D984269B5B1B1293069B30
:1059C000472B00F01883069B462B00F05F84229B38
:1059D0001093109B069A013B412A229300F0AA855E
:1059E000F2B20021002BB8BF109B8DF89020BABFF7
:1059F000C3F101032D222B22092B8DF8912040F3B6
:105A000063850DF19F04BD4F2246104687FB03219D
:105A1000DA17C2EBA10202EB8201A3EB41013031A4
:105A200000F8011C19466329134600F1FF32ECDC33
:105A30003033D9B2831E9C4202F8011C40F2CE855D
:105A400013460DF1920201E013F8011B02F8011B4D
:105A50009C42F9D10DF1A1030DF192021B1A1344DE
:105A600024AA9B1A1A93129B1A9A012B1A440C927D
:105A700040F372850C9B169A13440C930C9A0023E6
:105A800029F4806722EAE27247F480770F93069246
:105A9000139310931D9B002B40F0DE829DF8832012
:105AA0000893FFF777BA0E9B0B9853F8041B0E93DD
:105AB000C217C1E900025546FFF724BA199B002B13
:105AC0003FF42FA9199B1B78002B3FF42AA99AF8C1
:105AD000006047F48067FFF79DB80E9B53F8044BB6
:105AE0000E930123FFF7DEBA854B189317F02009B8
:105AF00049D00E9B073323F00703D3F8049053F8E3
