:020000040800F2
:100000000080002079210008692000086B2000088A
:100010006D2000086F20000871200008000000001B
:100020000000000000000000000000007320000835
:1000300075200008000000007720000879200008E3
:10004000C9210008C9210008C9210008C9210008E8
:10005000C9210008C9210008C9210008C9210008D8
:10006000C9210008C9210008C9210008C9210008C8
:10007000C9210008C9210008C9210008C9210008B8
:10008000C921000800000000C9210008C92100089A
:10009000C92100087D200008C9210008C9210008E5
:1000A000C9210008C92100088D200008C9210008C5
:1000B000A5200008C9210008B5200008C9210008B2
:1000C000C9210008C9210008C9210008C921000868
:1000D000C9210008C9210008C5200008C92100085D
:1000E000C9210008C9210008C9210008C921000848
:1000F000C9210008C9210008C9210008000000002A
:1001000000000000C921000800000000C92100080B
:10011000C921000800000000C9210008C921000809
:10012000C9210008C9210008C9210008C921000807
:10013000C92100080000000000000000C9210008DB
:10014000C9210008C92100080000000000000000CB
:10015000000000000000000000000000000000009F
:10016000000000000000000000000000C92100089D
:10017000C92100080000000000000000000000008D
:1001800000000000C921000800000000000000007D
:10019000000000000000000000000000000000005F
:1001A0000000000000000000C9210008C92100086B
:1001B000C9210008C9210008C92100080000000069
:1001C00000000000C921000800000000000000003D
:0801D000C9210008C921000843
:1002000010B5054C237833B9044B13B10448AFF350
:1002100000800123237010BDB809002000000000F9
:10022000E0B8000808B5034B1BB103490348AFF31E
:10023000008008BD00000000BC090020E0B80008F4
:1002400081F0004102E000BF83F0004330B54FEA87
:1002500041044FEA430594EA050F08BF90EA020FF4
:100260001FBF54EA000C55EA020C7FEA645C7FEA87
:10027000655C00F0E2804FEA5454D4EB5555B8BFAA
:100280006D420CDD2C4480EA020281EA030382EA1B
:10029000000083EA010180EA020281EA0303362DAD
:1002A00088BF30BD11F0004F4FEA01314FF4801C80
:1002B0004CEA113102D0404261EB410113F0004F92
:1002C0004FEA03334CEA133302D0524263EB430349
:1002D00094EA050F00F0A780A4F10104D5F1200EE7
:1002E0000DDB02FA0EFC22FA05F2801841F1000142
:1002F00003FA0EF2801843FA05F359410EE0A5F116
:1003000020050EF1200E012A03FA0EFC28BF4CF046
:10031000020C43FA05F3C01851EBE37101F00045FC
:1003200007D54FF0000EDCF1000C7EEB00006EEB09
:100330000101B1F5801F1BD3B1F5001F0CD3490893
:100340005FEA30004FEA3C0C04F101044FEA4452EA
:1003500012F5800F80F09A80BCF1004F08BF5FEA71
:10036000500C50F1000041EB045141EA050130BD51
:100370005FEA4C0C404141EB0101013C28BFB1F563
:10038000801FE9D291F0000F04BF01460020B1FAAE
:1003900081F308BF2033A3F10B03B3F120020CDA81
:1003A0000C3208DD02F1140CC2F10C0201FA0CF05F
:1003B00021FA02F10CE002F11402D8BFC2F1200CC4
:1003C00001FA02F120FA0CFCDCBF41EA0C0190407A
:1003D000E41AA2BF01EB0451294330BD6FEA0404C3
:1003E0001F3C1CDA0C340EDC04F11404C4F12002AE
:1003F00020FA04F001FA02F340EA030021FA04F3C0
:1004000045EA030130BDC4F10C04C4F1200220FA16
:1004100002F001FA04F340EA0300294630BD21FA54
:1004200004F0294630BD94F0000F83F4801306BF1A
:1004300081F480110134013D4EE77FEA645C18BF0E
:100440007FEA655C29D094EA050F08BF90EA020FA5
:1004500005D054EA000C04BF1946104630BD91EA9D
:10046000030F1EBF0021002030BD5FEA545C05D1A0
:100470004000494128BF41F0004130BD14F58004DF
:100480003CBF01F5801130BD01F0004545F0FE4153
:1004900041F470014FF0000030BD7FEA645C1ABF88
:1004A000194610467FEA655C1CBF0B46024650EABF
:1004B000013406BF52EA033591EA030F41F40021EB
:1004C00030BD00BF90F0000F04BF0021704730B571
:1004D0004FF4806404F132044FF000054FF0000146
:1004E00050E700BF90F0000F04BF0021704730B507
:1004F0004FF4806404F1320410F0004548BF4042DC
:100500004FF000013EE700BF42004FEAE2014FEA30
:1005100031014FEA02701FBF12F07F4393F07F4F0B
:1005200081F06051704732F07F4208BF704793F00E
:100530007F4F04BF41F40021704730B54FF4607421
:1005400001F0004521F000411CE700BF50EA010224
:1005500008BF704730B54FF000050AE050EA0102CD
:1005600008BF704730B511F0004502D5404261EB3D
:1005700041014FF4806404F132045FEA915C3FF47E
:10058000D8AE4FF003025FEADC0C18BF03325FEA1B
:10059000DC0C18BF033202EBDC02C2F1200300FACC
:1005A00003FC20FA02F001FA03FE40EA0E0021FAF1
:1005B00002F11444BDE600BF80F0004002E000BF3D
:1005C00081F0004142001FBF5FEA410392EA030F3E
:1005D0007FEA226C7FEA236C6AD04FEA1262D2EB88
:1005E0001363C1BFD218414048404140B8BF5B428D
:1005F000192B88BF704710F0004F40F4000020F026
:100600007F4018BF404211F0004F41F4000121F03B
:100610007F4118BF494292EA030F3FD0A2F1010285
:1006200041FA03FC10EB0C00C3F1200301FA03F1C3
:1006300000F0004302D5494260EB4000B0F5000FE6
:1006400013D3B0F1807F06D340084FEA310102F1A5
:100650000102FE2A51D2B1F1004F40EBC25008BF57
:1006600020F0010040EA03007047490040EB000021
:10067000013A28BFB0F5000FEDD2B0FA80FCACF122
:10068000080CB2EB0C0200FA0CF0AABF00EBC2504F
:1006900052421843BCBFD0401843704792F0000F3D
:1006A00081F4000106BF80F400000132013BB5E790
:1006B0004FEA41037FEA226C18BF7FEA236C21D006
:1006C00092EA030F04D092F0000F08BF084670476B
:1006D00090EA010F1CBF0020704712F07F4F04D139
:1006E000400028BF40F00040704712F100723CBF4C
:1006F00000F50000704700F0004343F0FE4040F476
:10070000000070477FEA226216BF08467FEA236333
:100710000146420206BF5FEA412390EA010F40F41E
:10072000800070474FF0000304E000BF10F000436A
:1007300048BF40425FEA000C08BF704743F0964351
:1007400001464FF000001CE050EA010208BF70476C
:100750004FF000030AE000BF50EA010208BF7047F3
:1007600011F0004302D5404261EB41015FEA010C08
:1007700002BF84460146002043F0B64308BFA3F100
:100780008053A3F50003BCFA8CF2083AA3EBC253E2
:1007900010DB01FA02FC634400FA02FCC2F1200201
:1007A000BCF1004F20FA02F243EB020008BF20F038
:1007B0000100704702F1200201FA02FCC2F120029E
:1007C00050EA4C0021FA02F243EB020008BF20EA93
:1007D000DC7070474FF0FF0C1CEAD0521EBF1CEAC1
:1007E000D15392EA0C0F93EA0C0F6FD01A4480EAAF
:1007F000010C400218BF5FEA41211ED04FF0006398
:1008000043EA501043EA5111A0FB01310CF00040C3
:10081000B1F5000F3EBF490041EAD3715B0040EAE9
:10082000010062F17F02FD2A1DD8B3F1004F40EBB9
:10083000C25008BF20F00100704790F0000F0CF08C
:10084000004C08BF49024CEA502040EA51207F3A50
:10085000C2BFD2F1FF0340EAC250704740F400002B
:100860004FF00003013A5DDC12F1190FDCBF00F01C
:1008700000407047C2F10002410021FA02F1C2F1CA
:10088000200200FA02FC5FEA310040F1000053EA66
:100890004C0308BF20EADC70704792F0000F00F0B4
:1008A000004C02BF400010F4000F013AF9D040EABA
:1008B0000C0093F0000F01F0004C02BF490011F44E
:1008C000000F013BF9D041EA0C018FE70CEAD1534C
:1008D00092EA0C0F18BF93EA0C0F0AD030F0004CCC
:1008E00018BF31F0004CD8D180EA010000F0004080
:1008F000704790F0000F17BF90F0004F084691F03E
:10090000000F91F0004F14D092EA0C0F01D1420277
:100910000FD193EA0C0F03D14B0218BF084608D140
:1009200080EA010000F0004040F0FE4040F400008A
:10093000704740F0FE4040F4400070474FF0FF0C1D
:100940001CEAD0521EBF1CEAD15392EA0C0F93EA64
:100950000C0F69D0A2EB030280EA010C49024FEAB6
:10096000402037D04FF0805343EA111143EA10136F
:100970000CF000408B4238BF5B0042F17D024FF427
:10098000000C8B4224BF5B1A40EA0C00B3EB510F02
:1009900024BFA3EB510340EA5C00B3EB910F24BFEB
:1009A000A3EB910340EA9C00B3EBD10F24BFA3EB70
:1009B000D10340EADC001B0118BF5FEA1C1CE0D138
:1009C000FD2A3FF650AF8B4240EBC25008BF20F0EB
:1009D000010070470CF0004C4CEA50207F32C2BF3F
:1009E000D2F1FF0340EAC250704740F400004FF0DC
:1009F0000003013A37E792F0000F00F0004C02BF0D
:100A0000400010F4000F013AF9D040EA0C0093F0D6
:100A1000000F01F0004C02BF490011F4000F013B30
:100A2000F9D041EA0C0195E70CEAD15392EA0C0F98
:100A300008D142027FF47DAF93EA0C0F7FF470AFD0
:100A4000084676E793EA0C0F04D14B023FF44CAF13
:100A500008466EE730F0004C18BF31F0004CCAD1A8
:100A600030F000427FF45CAF31F000437FF43CAFE4
:100A70005FE700BF4FEA4002B2F1FE4F0FD34FF0E5
:100A80009E03B3EB12620DD94FEA002343F00043FB
:100A900010F0004F23FA02F018BF404270474FF0A9
:100AA0000000704712F1610F01D1420205D110F030
:100AB000004008BF6FF0004070474FF000007047E3
:100AC00053B94AB9002908BF00281CBF4FF0FF31B5
:100AD0004FF0FF3000F074B9ADF1080C6DE904CEB1
:100AE00000F006F8DDF804E0DDE9022304B0704709
:100AF0002DE9F047089E0D4604468846002B4DD14F
:100B00008A42944668D9B2FA82F252B101FA02F3EB
:100B1000C2F1200120FA01F10CFA02FC41EA0308BB
:100B200094404FEA1C45210CB8FBF5FE1FFA8CF7E8
:100B300005FB1E8341EA03430EFB07F199420BD9E3
:100B40001CEB03030EF1FF3080F01E81994240F24E
:100B50001B81AEF1020E63445B1AA4B2B3FBF5F045
:100B600005FB103344EA034400FB07F7A7420AD908
:100B70001CEB040400F1FF3380F00881A74240F22F
:100B8000058164440238E41B40EA0E4000211EB196
:100B9000D4400023C6E90043BDE8F0878B4208D962
:100BA000002E00F0EE800021C6E900050846BDE8F1
:100BB000F087B3FA83F100294AD1AB4202D38242D3
:100BC00000F2F980841A65EB030301209846002E99
:100BD000E2D0C6E90048DFE702B9FFDEB2FA82F2EE
:100BE000002A40F09180A1EB0C054FEA1C471FFA48
:100BF0008CFE0121B5FBF7F307FB1350250C45EAEA
:100C000000450EFB03F0A84208D91CEB050503F1D3
:100C1000FF3802D2A84200F2CB8043462D1AA4B27C
:100C2000B5FBF7F007FB105544EA05440EFB00FE48
:100C3000A64508D91CEB040400F1FF3502D2A645F5
:100C400000F2BB802846A4EB0E0440EA03409EE776
:100C5000C1F120078B4022FA07FC4CEA030C20FA72
:100C600007F405FA01F31C43FD404FEA1C4900FA62
:100C700001F3B5FBF9F8200C1FFA8CFE09FB18559F
:100C800040EA054508FB0EF0A84202FA01F20BD932
:100C90001CEB050508F1FF3A80F08880A84240F27D
:100CA0008580A8F1020865442D1AA4B2B5FBF9F0BD
:100CB00009FB105544EA054500FB0EFEAE4508D978
:100CC0001CEB050500F1FF346CD2AE456AD9023841
:100CD000654440EA0840A0FB0294A5EB0E05A5423E
:100CE000C846A64656D353D05EB1B3EB080265EBB7
:100CF0000E0505FA07F722FA01F3CD401F43C6E9B6
:100D000000750021BDE8F087C2F1200320FA03F14D
:100D10000CFA02FC25FA03F395400D434FEA1C47F9
:100D20001FFA8CFEB3FBF7F107FB11302B0C43EAE3
:100D3000004301FB0EF0984204FA02F408D91CEBC0
:100D4000030301F1FF382FD298422DD902396344B1
:100D50001B1AADB2B3FBF7F007FB103345EA0345AE
:100D600000FB0EF3AB4208D91CEB050500F1FF3880
:100D700016D2AB4214D902386544ED1A40EA01415B
:100D800038E73146304607E78646E5E61846FAE694
:100D90004B45A9D2B9EB020864EB0C0E0138A3E76E
:100DA0004046EAE7204694E74146D1E7D0467BE754
:100DB000023B654432E7084609E76444023842E7EB
:100DC000704700BF000000000000000000000000AD
:100DD00001F0FF01102A2BDB10F0070F08D010F8EC
:100DE000013B013A8B422DD010F0070F42B3F6D1F0
:100DF000F0B441EA012141EA014122F007047FF009
:100E000000070023F0E80256083C85EA010586EA5F
:100E1000010685FA47F5A3FA87F586FA47F6A5FA9B
:100E200087F68EB9EED1F0BC01F0FF0102F00702A7
:100E300032B110F8013B013A83EA010313B1F8D152
:100E40000020704701387047002D06BF3546033833
:100E5000073815F0010F07D1013015F4807F02BF6C
:100E6000013015F4C03F0130F0BC0138704700BFBD
:100E7000844641EA000313F003036DD1403A41D3A5
:100E800051F8043B40F8043B51F8043B40F8043B64
:100E900051F8043B40F8043B51F8043B40F8043B54
:100EA00051F8043B40F8043B51F8043B40F8043B44
:100EB00051F8043B40F8043B51F8043B40F8043B34
:100EC00051F8043B40F8043B51F8043B40F8043B24
:100ED00051F8043B40F8043B51F8043B40F8043B14
:100EE00051F8043B40F8043B51F8043B40F8043B04
:100EF00051F8043B40F8043B51F8043B40F8043BF4
:100F0000403ABDD2303211D351F8043B40F8043B93
:100F100051F8043B40F8043B51F8043B40F8043BD3
:100F200051F8043B40F8043B103AEDD20C3205D3A3
:100F300051F8043B40F8043B043AF9D2043208D09B
:100F4000D2071CBF11F8013B00F8013B01D30B880D
:100F500003806046704700BF082A13D38B078DD0EB
:100F600010F003038AD0C3F10403D21ADB071CBFBD
:100F700011F8013B00F8013B80D331F8023B20F827
:100F8000023B7BE7043AD9D3013A11F8013B00F860
:100F9000013BF9D20B7803704B7843708B788370E8
:100FA00060467047000000000000000000000000E4
:100FB0000000000000000000000000000000000031
:100FC00090F800F06DE9024520F007016FF0000C89
:100FD00010F0070491F820F040F049804FF0000431
:100FE0006FF00700D1E9002391F840F000F108000C
:100FF00082FA4CF2A4FA8CF283FA4CF3A2FA8CF344
:101000004BBBD1E9022382FA4CF200F10800A4FAAA
:101010008CF283FA4CF3A2FA8CF3E3B9D1E90423FE
:1010200082FA4CF200F10800A4FA8CF283FA4CF335
:10103000A2FA8CF37BB9D1E9062301F1200182FAEF
:101040004CF200F10800A4FA8CF283FA4CF3A2FAF5
:101050008CF3002BC6D0002A04BF04301A4612BA03
:10106000B2FA82F2FDE8024500EBD2007047D1E906
:10107000002304F00305C4F100004FEAC50514F095
:10108000040F91F840F00CFA05F562EA05021CBF66
:1010900063EA050362464FF00004A9E770B54FF01C
:1010A000FF0C4CF4E06C1CEA11541DBF1CEA1355F4
:1010B00094EA0C0F95EA0C0F00F0DEF82C4481EA5C
:1010C000030621EA4C5123EA4C5350EA013518BF7C
:1010D00052EA033541F4801143F4801338D0A0FB69
:1010E00002CE4FF00005E1FB02E506F00042E0FB16
:1010F00003E54FF00006E1FB03569CF0000F18BF1C
:101100004EF0010EA4F1FF04B6F5007F64F54074C3
:1011100004D25FEA4E0E6D4146EB060642EAC62156
:1011200041EA55514FEAC52040EA5E504FEACE2EC3
:10113000B4F1FD0C88BFBCF5E06F1ED8BEF1004FC6
:1011400008BF5FEA500E50F1000041EB045170BD42
:1011500006F0004646EA010140EA020081EA030186
:10116000B4EB5C04C2BFD4EB0C0541EA045170BD82
:1011700041F480114FF0000E013C00F3AB8014F1FC
:10118000360FDEBF002001F0004170BDC4F1000445
:10119000203C35DA0C341BDC04F11404C4F12005C6
:1011A00000FA05F320FA04F001FA05F240EA020021
:1011B00001F0004221F0004110EBD37021FA04F657
:1011C00042EB06015EEA430E08BF20EAD37070BD11
:1011D000C4F10C04C4F1200500FA04F320FA05F070
:1011E00001FA04F240EA020001F0004110EBD37072
:1011F00041F100015EEA430E08BF20EAD37070BDE2
:10120000C4F1200500FA05F24EEA020E20FA04F3BA
:1012100001FA05F243EA020321FA04F001F0004169
:1012200021FA04F220EA020000EBD3705EEA430EDA
:1012300008BF20EAD37070BD94F0000F0FD101F009
:101240000046400041EB010111F4801F08BF013C42
:10125000F7D041EA060195F0000F18BF704703F080
:101260000046520043EB030313F4801F08BF013D07
:10127000F7D043EA0603704794EA0C0F0CEA1355C3
:1012800018BF95EA0C0F0CD050EA410618BF52EA7D
:101290004306D1D181EA030101F000414FF0000083
:1012A00070BD50EA410606BF1046194652EA430691
:1012B00019D094EA0C0F02D150EA013613D195EA05
:1012C0000C0F05D152EA03361CBF104619460AD14D
:1012D00081EA030101F0004141F0FE4141F4700157
:1012E0004FF0000070BD41F0FE4141F4780170BD47
:1012F00070B54FF0FF0C4CF4E06C1CEA11541DBFAC
:101300001CEA135594EA0C0F95EA0C0F00F0A7F8AD
:10131000A4EB050481EA030E52EA03354FEA0131DA
:1013200000F088804FEA03334FF0805545EA1313ED
:1013300043EA12634FEA022245EA111545EA1065B5
:101340004FEA00260EF000419D4208BF964244F14C
:10135000FD0404F5407402D25B084FEA3202B61A6B
:1013600065EB03055B084FEA32024FF480104FF43F
:10137000002CB6EB020E75EB030E22BFB61A7546B3
:1013800040EA0C005B084FEA3202B6EB020E75EB46
:10139000030E22BFB61A754640EA5C005B084FEAAE
:1013A0003202B6EB020E75EB030E22BFB61A75467B
:1013B00040EA9C005B084FEA3202B6EB020E75EB86
:1013C000030E22BFB61A754640EADC0055EA060E47
:1013D00018D04FEA051545EA16754FEA06164FEA8A
:1013E000C30343EA52734FEAC2025FEA1C1CC0D136
:1013F00011F4801F0BD141EA00014FF000004FF0C3
:10140000004CB6E711F4801F04BF01430020B4F183
:10141000FD0C88BFBCF5E06F3FF6AFAEB5EB030C3B
:1014200004BFB6EB020C5FEA500C50F1000041EB38
:10143000045170BD0EF0004E4EEA113114EB5C0405
:10144000C2BFD4EB0C0541EA045170BD41F48011D8
:101450004FF0000E013C90E645EA060E8DE60CEAE0
:10146000135594EA0C0F08BF95EA0C0F3FF43BAFFD
:1014700094EA0C0F0AD150EA01347FF434AF95EAB4
:101480000C0F7FF425AF104619462CE795EA0C0F98
:1014900006D152EA03353FF4FDAE1046194622E765
:1014A00050EA410618BF52EA43067FF4C5AE50EA3F
:1014B00041047FF40DAF52EA43057FF4EBAE12E72F
:1014C0004FF0FF3C06E000BF4FF0010C02E000BF10
:1014D0004FF0010C4DF804CD4FEA410C7FEA6C5CF3
:1014E0004FEA430C18BF7FEA6C5C1BD001B050EA96
:1014F000410C0CBF52EA430C91EA030F02BF90EA81
:10150000020F0020704710F1000F91EA030F58BF3F
:10151000994208BF90422CBFD8176FEAE37040F0A1
:10152000010070474FEA410C7FEA6C5C02D150EA3F
:10153000013C07D14FEA430C7FEA6C5CD6D152EAFA
:10154000033CD3D05DF8040B704700BF84461046BF
:1015500062468C461946634600E000BF01B5FFF7BE
:10156000B7FF002848BF10F1000F01BD4DF808ED8E
:10157000FFF7F4FF0CBF012000205DF808FB00BF5F
:101580004DF808EDFFF7EAFF34BF012000205DF8B9
:1015900008FB00BF4DF808EDFFF7E0FF94BF012006
:1015A00000205DF808FB00BF4DF808EDFFF7CEFF07
:1015B00094BF012000205DF808FB00BF4DF808ED46
:1015C000FFF7C4FF34BF012000205DF808FB00BF17
:1015D0004FEA410C7FEA6C5C02D150EA013C0AD12F
:1015E0004FEA430C7FEA6C5C02D152EA033C02D121
:1015F0004FF0000070474FF0010070474FEA410282
:1016000012F5001215D211D56FF47873B3EB625254
:1016100012D94FEAC12343F0004343EA505311F07B
:10162000004F23FA02F018BF404270474FF000000D
:10163000704750EA013005D111F0004008BF6FF04B
:10164000004070474FF00000704700BF2DE9F041A7
:10165000044608461E461146FEF7B2FF05462061C5
:10166000636A73B96169FEF7ADFF3146FFF7B2F8FF
:101670004FF07C51FFF7AEF80146E069FEF7A2FF9C
:10168000E061A769D4F814804FF081414046FFF72C
:10169000A1F801463846FEF793FF0746174928464A
:1016A000FFF798F801463846FEF78CFF07463146AB
:1016B0003046FEF787FF01463846FFF73FF90646FA
:1016C0002062C4F81880656121682846FFF782F817
:1016D0000546E1696068FFF77DF801462846FEF798
:1016E00071FF0546A1683046FFF774F801462846A9
:1016F000FEF768FFFFF7BEF9BDE8F081000040404B
:1017000070B588B00024039404940594069407945B
:10171000174BDA6C42F00102DA64DA6C02F0010273
:101720000192019ADA6C42F00202DA64DB6C03F097
:1017300002030293029B0F4D22464FF4C8712846C4
:1017400001F01BF90126039604940223059303A9D3
:101750004FF0904001F01CF84FF4C87303930496C7
:101760000594069403A9284601F012F808B070BD4C
:10177000001002400004004810B514460A2392B23B
:10178000024803F036FD204610BD00BF9C0B002030
:1017900008B5FEF7CBFF0549FFF7D0F80449FFF77E
:1017A00019F80449FFF716F808BD00BF0000FA4415
:1017B0000000B4433D0A573E08B53C21144802F0EE
:1017C000ADFD144802F0B6F80821134802F094FC6D
:1017D00003E0114B1B683222DA6301214FF0904085
:1017E00001F0C4F80028F4D00B4B1A680023D3632F
:1017F0000A4A002111600648026853623C2102F047
:1018000027FD044802F054F8054B064A1A6008BD4B
:101810006C0A0020B80A0020040B0020D409002024
:101820002C0C0020000034420268094B9A4200D080
:10183000704710B5074C204603F01CFFFEF776FFFB
:10184000054B186003222146044803F053FE10BDE7
:1018500000440040300C00202C0C00209C0B002089
:1018600030B585B004460268354B9A4209D02368EA
:10187000B3F1804F08D02268324B9A424BD005B06A
:1018800030BD00F0B1FCF2E72F4B1B68586A00B284
:101890002E4A108000225A62FFF77AFF2C4D2968E9
:1018A000FEF790FE024628602A4B2B4909682B4818
:1018B000FFF7CCFE2A4B1860B0F5AF7F17DD4FF471
:1018C000AF721A60254B01225A62254B1B68002B10
:1018D0001BDD00228021234801F04FF8224B1A68BB
:1018E0001F4B1B68002BB8BF5B42D363C3E710F5E7
:1018F000AF7F06DA1A4B1D4A1A60184B01225A6252
:10190000E3E7164B00225A62DFE7012280211548E7
:1019100001F033F8E2E70E4B1868FEF7F5FD0446D8
:101920000D460F4B1B6802930B4B1868FEF7ECFD3E
:10193000CDE9000122462B460D4803F01BFF9EE730
:1019400000480140000800406C0A0020DC0900202B
:10195000D40900200AD7233C2C0C0020440A002084
:10196000D809002000040048040B0020A2FEFFFF5D
:10197000F8B8000872B6FEE700B58DB02422002149
:1019800003A803F0A5FE00230093019302931248DD
:10199000124A0260436083604FF6FF72C2600361C7
:1019A000436183610323039301230593099303A9EF
:1019B00002F0AAF958B900230093019302936946F3
:1019C000054802F019FD20B90DB05DF804FBFFF7E2
:1019D000D1FFFFF7CFFF00BF6C0A0020002C0140B1
:1019E00008B51548154B03604FF4E13343600023FD
:1019F0008360C36003610C2242618361C36103623F
:101A00004362836203F09EFC70B900210A4803F030
:101A1000E7FD58B90021084803F007FE40B9064821
:101A200003F0BFFD30B908BDFFF7A4FFFFF7A2FF29
:101A3000FFF7A0FFFFF79EFF9C0B00200044004033
:101A400000B58FB000230A930B930C930D9307936B
:101A500008930993009301930293039304930593CE
:101A600006931F481F4A026007224260836040F2CB
:101A7000E732C2600361836102F0E6F828BB4FF4ED
:101A800080530A930AA9164802F08AFAF8B9144852
:101A900002F00AF9E8B900230793099307A910484F
:101AA00002F0AAFCB8B960230093002301930293CB
:101AB0000493082269460A4802F0C8F968B9084840
:101AC00000F016FA0FB05DF804FBFFF753FFFFF7C5
:101AD00051FFFFF74FFFFFF74DFFFFF74BFF00BF31
:101AE000040B00200004004000B589B000230493DB
:101AF00005930693079301930293039313484FF0C2
:101B0000804202604F224260836042F20F72C260E4
:101B10000361836102F098F890B94FF48053049305
:101B200004A90A4802F03CFA60B900230193039328
:101B300001A9064802F060FC30B909B05DF804FB69
:101B4000FFF718FFFFF716FFFFF714FFB80A002092
:101B500000B589B00023049305930693079301937E
:101B6000029303931348144A02609F2242608360E9
:101B700042F20F72C2600361836102F065F890B9AE
:101B80004FF48053049304A90A4802F009FA60B99B
:101B900000230193039301A9064802F02DFC30B9FC
:101BA00009B05DF804FBFFF7E5FEFFF7E3FEFFF782
:101BB000E1FE00BF500B00200008004010B51148A6
:101BC000114B0360002343604FF440728260C36096
:101BD00003744374837405214161022484610D22DE
:101BE000C2610462416282620A22C2620922026305
:101BF000012242638363C36300F008FC00B910BD97
:101C0000FFF7B8FEE00900200064004000B595B081
:101C10003822002106A803F05BFD00230193029304
:101C20000393049305934FF4007000F0ABFE02237E
:101C300006934FF48072099240220A920D930E93FC
:101C400001220F920A22109211931293139306A865
:101C500000F04AFF78B90F23019303230293002376
:101C6000039304930593022101A801F0F5F920B92B
:101C700015B05DF804FBFFF77DFEFFF77BFE00006B
:101C800008B51B4B1B680021986803F087FD00F026
:101C90009CFAFFF7BBFFFFF733FDFFF76DFEFFF781
:101CA0009FFEFFF7CDFEFFF71FFFFFF751FFFFF786
:101CB00085FF104B104A1A60104A5A604FF07F524D
:101CC0009A6008210E4802F017FAFFF775FD3C21D3
:101CD0000C4802F0BDFA0C4801F0EAFD0B4801F097
:101CE000E7FD03220A490B4803F004FCFEE700BFAE
:101CF0000C000020440A00200000B8410000904180
:101D0000040B00206C0A0020B80A0020500B0020B1
:101D1000300C00209C0B002082B00A4B1A6E42F05F
:101D200001021A661A6E02F001020092009A9A6D80
:101D300042F080529A659B6D03F080530193019BA2
:101D400002B070470010024010B598B00446002160
:101D500013911491159116911791442202A803F042
:101D6000B7FC22681E4B9A4201D018B010BD4FF448
:101D7000805302934FF000730E9302A801F0B0FA63
:101D800050BB184B9A6D42F000729A659A6D02F042
:101D900000720092009ADA6C42F00102DA64DB6CA5
:101DA00003F001030193019B4FF4C05313930223EB
:101DB00014930024159416940923179313A94FF034
:101DC000904000F0E5FC22462146152000F030FA54
:101DD000152000F065FAC8E7FFF7CCFDD1E700BF9A
:101DE000006400400010024000B589B00023039356
:101DF00004930593069307930268184B9A4202D006
:101E000009B05DF804FB03F564431A6E42F4006206
:101E10001A661A6E02F400620192019ADA6C42F0BC
:101E20000102DA64DB6C03F001030293029B4FF4BE
:101E3000407303930223049301230593062307931E
:101E400003A94FF0904000F0A3FC00220F211A20BC
:101E500000F0EEF91A2000F023FAD1E7002C01403F
:101E600000B585B00368B3F1804F08D01D4A934296
:101E700019D01D4A934221D005B05DF804FB03F54B
:101E800004339A6D42F001029A659B6D03F00103E1
:101E90000193019B002211461C2000F0C9F91C206F
:101EA00000F0FEF9E8E7114B9A6D42F002029A65E4
:101EB0009B6D03F002030293029BDDE70B4B9A6DCF
:101EC00042F004029A659B6D03F004030393039BA5
:101ED000002211461E2000F0ABF91E2000F0E0F9B0
:101EE000CAE700BF000400400008004000100240A4
:101EF00000B587B0002301930293039304930593E5
:101F000002680D4B9A4202D007B05DF804FB03F55E
:101F10000333DA6C42F00202DA64DB6C03F0020392
:101F20000093009B0123019302230293059301A9CF
:101F3000024800F02DFCE7E70004004000040048E0
:101F400010B598B004460021139114911591169183
:101F50001791442202A803F0BBFB22681B4B9A4254
:101F600001D018B010BD0223029302A801F0B8F905
:101F700048BB174B9A6D42F400329A659A6D02F491
:101F800000320092009ADA6C42F00102DA64DB6CF3
:101F900003F001030193019B0C2313930223149379
:101FA0000024159416940723179313A94FF090401B
:101FB00000F0EEFB22462146262000F039F92620CB
:101FC00000F06EF9CDE7FFF7D5FCD2E70044004002
:101FD0000010024030B589B004461E4B1A6E42F420
:101FE00080221A661B6E03F480230193019B02A9D1
:101FF00003A801F057F901F043F903461648A0FB86
:1020000003239B0C013B1548154A026040F2E7325E
:10201000C260436000230361836001F015FE054642
:1020200010B1284609B030BD0C4801F041FC05460E
:102030000028F6D11A2000F033F90F2C01D9012520
:10204000EFE7002221461A2000F0F2F8054B1C6051
:10205000E7E700BF0010024083DE1B43340C002082
:102060000048014008000020FEE7FEE7FEE7FEE72B
:10207000FEE77047704770477047000008B5024898
:1020800000F0B9FA08BD00BFE009002008B5034818
:1020900001F06EFC024801F06BFC08BD6C0A0020E8
:1020A000340C002008B5024801F062FC08BD00BFF6
:1020B000B80A002008B5024801F05AFC08BD00BF6C
:1020C000500B002008B5024802F032FA08BD00BFEC
:1020D0009C0B00200120704708B503F0CFFA1623AF
:1020E00003604FF0FF3008BD08B54FF0FF31FFF738
:1020F000F3FFFEE770B50C461646002506E0AFF389
:102100000080214601F8010B01350C46B542F6DB93
:10211000304670BD4FF0FF3070474FF400534B60B6
:1021200000207047012070470020704710B503461B
:102130000C4A0D490D48006840B10C480068034442
:10214000521A934206D8094A136010BD0748084C3A
:102150000460F2E703F092FA0C2303604FF0FF30C3
:10216000F3E700BF0080002000040000800C002086
:10217000D00C0020704700000D4885460D480E49E0
:102180000E4A002302E0D458C4500433C4188C42D1
:10219000F9D30B4A0B4C002301E013600432A24236
:1021A000FBD3FFF7E7FF03F06FFAFFF769FDFEE7E8
:1021B0000080002000000020B809002060BD000859
:1021C000B8090020D00C0020FEE710B5032000F075
:1021D0001DF80F20FFF7FEFE10B10124204610BDB0
:1021E0000446FFF799FDF9E7034A136803490968B4
:1021F0000B441360704700BF840C002004000020D3
:10220000014B1868704700BF840C0020074AD36850
:1022100023F4E0631B041B0C000200F4E0600343A2
:1022200043F0BF6343F40033D360704700ED00E038
:1022300000B5194BDB68C3F30223C3F1070CBCF1F3
:10224000040F28BF4FF0040C03F1040EBEF1060F7B
:1022500018D9033B4FF0FF3E0EFA0CFC21EA0C01AB
:1022600099400EFA03F322EA0303194300280BDB1B
:102270000901C9B200F1604000F5614080F8001327
:102280005DF804FB0023E5E700F00F000901C9B287
:10229000024B1954F4E700BF00ED00E014ED00E03C
:1022A000002807DB00F01F02400901239340024A87
:1022B00042F82030704700BF00E100E0034690F88C
:1022C0002520D2B2022A09D00422C26301200122B1
:1022D00083F82520002283F82420704701680A68CB
:1022E00022F00E020A60816C0A6822F480720A6091
:1022F00001680A6822F001020A60426C02F01F01C4
:10230000006C01228A404260DA6C196D51605A6D8E
:1023100042B1116821F4807111609A6DD96D5160DC
:102320000020D4E70020D2E708B590F82530DBB2D2
:10233000022B09D00423C363012380F82530002237
:1023400080F82420184608BD0268136823F00E03A5
:1023500013600268136823F001031360826C136832
:1023600023F480731360436C03F01F02016C01239C
:1023700093404B60C36C026D5A60436D33B11A6871
:1023800022F480721A60836DC26D5A60012380F856
:102390002530002380F82430836B13B19847002048
:1023A000D1E70020CFE70000144B03640168D1F8A7
:1023B000802022F4F812D0F834C042EA0C42C1F86E
:1023C00080200F4A42640168D1F8802022F07062B8
:1023D000D0F838C042EA0C62C1F88020094A826411
:1023E000D832C264D83202651832426502E0002257
:1023F00043F8042B044A9342F9D9704700A40040E3
:1024000070A40040B0A400404FA70040002800F096
:10241000E38038B5044690F85C30D3B12268936904
:1024200023F010039361FFF7EBFE054623689A69DA
:1024300012F0080F12D0FFF7E3FE401B0A28F5D96F
:10244000236E43F001032366032384F85C300120EC
:1024500038BD80F85D30FFF777FCDFE79A6942F01E
:1024600001029A61FFF7CCFE054623689A6912F0D3
:10247000010F0DD1FFF7C4FE401B0A28F5D9236ECA
:1024800043F001032366032384F85C300120DFE777
:102490009A6942F002029A612268504B9A4242D0F5
:1024A000237C012B45D02268936943F0400393615C
:1024B000637C012B43D02268936923F480439361AA
:1024C000A37C012B41D02268936943F4805393612C
:1024D0002268936923F44073A1680B4393612268D7
:1024E000936923F0A40393612268136923F0100316
:1024F0001361E368012B2ED0002B31D0022B54D076
:102500002268936943F0800393612268136943F062
:1025100010031361E368032B22D12268936943F00F
:10252000200393611CE06268A3F58063C3F8002573
:10253000B6E72268936923F040039361B8E7226805
:10254000936943F480439361BAE72268936923F463
:1025500080539361BCE72268936943F0040393615D
:10256000A3695A1EE369013B1B0243EA4263226AE4
:10257000013A13436269013A216843EA0243CB619D
:10258000A368B3F5407F16D02268D2F8C030E16B63
:102590000B43C2F8C0302046FFF706FF0020A065BD
:1025A0002066012384F85C3052E72268936943F087
:1025B00020039361D4E7A36A013BE26A013A43EA4C
:1025C0000223226B013A43EA0213626A013A21684C
:1025D00043EA0243CB60D7E7012070470064004024
:1025E0007047704770477047704770477047704733
:1025F0007047704770472DE9F843044603681A6D29
:1026000002F4E0595A6D09EA02091A6D02F007084E
:102610005A6D08EA02081F6D07F038075A6D174017
:102620001D6D05F471055A6D15401E6D06F460268A
:102630005A6D16401A6D12F0400F03D05A6D12F009
:10264000400F51D123681A6D12F4807F03D05A6D68
:1026500012F4807F4DD1B9F1000F56D1B8F1000FBF
:102660005BD1002F61D123681A6D12F4007F03D073
:102670005A6D12F4007F5FD123681A6D12F0800F3B
:1026800003D05A6D12F0800F5DD123681A6D12F4D9
:10269000005F03D05A6D12F4005F5FD123681A6D9A
:1026A00012F4004F03D05A6D12F4004F5DD123682D
:1026B0001A6D12F4804F0AD05A6D12F4804F06D072
:1026C0004FF480421A65236E43F080032366002E88
:1026D00052D125B123681D65236E1D432566236EE7
:1026E000002B50D1BDE8F88340221A65FFF780FF28
:1026F000A8E7D3F8D810D3F8E0204FF4807018651D
:1027000011402046FFF771FFA5E72368C3F85090FA
:1027100049462046FFF764FFA0E72368C3F85080CE
:1027200041462046FFF75DFF9BE723681F6539465A
:102730002046FFF757FF96E74FF400721A652046D0
:10274000FFF751FF98E7D3F8D410D3F8DC208020AE
:10275000186511402046FFF747FF96E74FF40052F7
:102760001A652046FFF742FF98E74FF400421A65CA
:102770002046FFF73CFF9AE723681E653146204656
:10278000FFF738FFA5E72046FFF733FFAAE7000071
:1027900070B582B0002365E085685E000324B44014
:1027A00025EA0405CC68B4402C438460446824EADC
:1027B0000C0C4C68C4F300149C4044EA0C044460C4
:1027C00061E0DD08083550F8256003F007044FEAA2
:1027D000840C0F2404FA0CF426EA040E0C6904FAA3
:1027E0000CF444EA0E0440F8254063E0052400E0C0
:1027F000002404FA0EF42C430CF1020C574D45F85A
:102800002C40574CA568D44325EA0206D1F804C0F1
:102810001CF4801F01D042EA0506514DAE60ED6800
:1028200004EA0506D1F804C01CF4001F01D042EAF6
:1028300005064B4DEE606D6804EA0506D1F804C04C
:102840001CF4003F01D042EA0506454D6E602D683C
:102850002C404E6816F4803F01D042EA0504404AFD
:10286000146001330A6832FA03F474D04FF0010C9B
:102870000CFA03FC1CEA0202F3D04C6804F00304D7
:10288000013C012C88D94C6804F00304032C0CD0C3
:10289000C4685D004FF0030C0CFA05FC24EA0C0C34
:1028A0008C68AC4044EA0C04C4604C6804F0030437
:1028B000022C86D004684FEA430E4FF0030C0CFA4A
:1028C0000EFC24EA0C0C4C6804F0030404FA0EF429
:1028D00044EA0C0404604C6814F4403FC1D0214C1D
:1028E000256E45F001052566246E04F0010401946F
:1028F000019C4FEA930C0CF10205184C54F825503A
:1029000003F003044FEA840E0F2404FA0EF425EAC0
:102910000405B0F1904F3FF46BAF134CA04212D0BE
:1029200004F58064A04210D004F58064A0420ED06B
:1029300004F58064A0420CD004F58064A0423FF40A
:1029400055AF062455E7012453E7022451E7032439
:102950004FE704244DE702B070BD00BF0000014006
:1029600000040140001002400004004803691942BD
:1029700001D001207047002070470AB18161704783
:1029800081627047002836D13E4B1B6803F4C06358
:10299000B3F5806F08D03B4AD2F8803023F48073BF
:1029A000C2F8803000207047364AD2F8803023F4D5
:1029B0008073C2F88030136823F4C06343F400735B
:1029C0001360314B1B68322202FB03F32F4AA2FB38
:1029D00003239B0C013300E0013B2A4A526912F4A5
:1029E000806F01D0002BF7D1264B5B6913F4806F09
:1029F00044D100207047B0F5007F08D0214A136809
:102A000023F4C06343F480631360002070471D4BC0
:102A10001B6803F4C063B3F5806F08D0194AD2F87D
:102A2000803043F48073C2F8803000207047154A2C
:102A3000D2F8803043F48073C2F88030136823F4F6
:102A4000C06343F4007313600F4B1B68322202FB18
:102A500003F30E4AA2FB03239B0C013300E0013B6E
:102A6000084A526912F4806F01D0002BF7D1054B50
:102A70005B6913F4806F03D1002070470320704717
:102A800003207047007000400000002083DE1B43DD
:102A9000124BDA6802F00302D868C0F30310431C3B
:102AA000032A11D00E48B0FBF3F00C4BDB68C3F3E4
:102AB000062303FB00F0094BDB68C3F341630133DA
:102AC0005B00B0FBF3F070470648B0FBF3F0034B3C
:102AD000DB68C3F3062303FB00F0ECE700100240C1
:102AE0000024F40000127A00002800F0548270B52F
:102AF00082B00446036813F0010F37D0A44A9368EC
:102B000003F00C03D26802F003020C2B23D0082B35
:102B100023D06368B3F5803F4ED0B3F5A02F51D0DA
:102B20009B4B1A6822F480321A601A6822F48022C1
:102B30001A606368002B52D0FFF762FB0546944B86
:102B40001B6813F4003F11D1FFF75AFB401B6428A8
:102B5000F5D9032028E2032AD9D18D4B1B6813F441
:102B6000003F03D06368002B00F01782236813F046
:102B7000020F5DD0864A936803F00C03D26802F01E
:102B800003020C2B3AD0042B3AD0E368002B75D00B
:102B90007F4A136843F480731360FFF731FB0546E7
:102BA0007B4B1B6813F4806F5FD1FFF729FB401B41
:102BB0000228F5D90320F7E1754A136843F48033FE
:102BC0001360B6E703F18043A3F53C331A6842F47F
:102BD00080221A601A6842F480321A60A9E7FFF76F
:102BE0000FFB05466A4B1B6813F4003FBED0FFF78E
:102BF00007FB401B6428F5D90320D5E1022AC2D186
:102C0000634B1B6813F4806F03D0E368002B00F064
:102C1000C6815F4A536823F0FE43216943EA01639A
:102C200053605C4B1868FFF7D5F9002840F0B98174
:102C3000236813F0080F4CD063699BB3544AD2F851
:102C4000943043F00103C2F89430FFF7D9FA0546F7
:102C50004F4BD3F8943013F0020F3AD1FFF7D0FA6C
:102C6000401B0228F4D903209EE1494A536823F00F
:102C7000FE43216943EA01635360D9E7444A13687C
:102C800023F480731360FFF7BBFA0546404B1B68C3
:102C900013F4806FCCD0FFF7B3FA401B0228F5D9AC
:102CA000032081E13A4AD2F8943023F00103C2F8BC
:102CB0009430FFF7A5FA0546354BD3F8943013F05E
:102CC000020F06D0FFF79CFA401B0228F4D903201C
:102CD0006AE1236813F0040F00F081802C4B9B6D98
:102CE00013F0805F36D12A4B9A6D42F080529A657C
:102CF0009B6D03F080530193019B0125264B1B68BC
:102D000013F4807F28D0A368012B39D0052B45D040
:102D10001F4BD3F8902022F00102C3F89020D3F883
:102D2000902022F00402C3F89020A368002B43D027
:102D3000FFF766FA0646164BD3F8903013F0020FF1
:102D40004CD1FFF75DFA801B41F288339842F2D9EB
:102D5000032029E10025D1E70F4A136843F480736B
:102D60001360FFF74DFA06460B4B1B6813F4807F88
:102D7000C9D1FFF745FA801B0228F5D9032013E1DA
:102D8000034AD2F8903043F00103C2F89030CCE708
:102D90000010024008000020007000408A4BD3F869
:102DA000902042F00402C3F89020D3F8902042F023
:102DB0000102C3F89020B8E7FFF722FA0646824BDB
:102DC000D3F8903013F0020F08D0FFF719FA801BE8
:102DD00041F288339842F2D90320E5E0E5B923684F
:102DE00013F0200F35D0A369E3B1774AD2F89830B9
:102DF00043F00103C2F89830FFF702FA0546724B20
:102E0000D3F8983013F0020F23D1FFF7F9F9401BE4
:102E10000228F4D90320C7E06B4A936D23F0805356
:102E20009365DCE7684AD2F8983023F00103C2F8D2
:102E30009830FFF7E5F90546634BD3F8983013F067
:102E4000020F06D0FFF7DCF9401B0228F4D903205B
:102E5000AAE0E369002B00F0A6805B4A926802F0CA
:102E60000C020C2A69D0022B1DD0574B1A6822F095
:102E700080721A60DA6822F00302DA60DA6822F0FF
:102E8000887222F48032DA60FFF7BAF904464E4BBA
:102E90001B6813F0007F4ED0FFF7B2F9001B022829
:102EA000F5D9032080E0484A136823F0807313604B
:102EB000FFF7A6F90546444B1B6813F0007F06D0C8
:102EC000FFF79EF9401B0228F5D903206CE03E4A2B
:102ED000D3683E491940236A606A013843EA001307
:102EE000A06A43EA0023206B4008013843EA4053BC
:102EF000606B4008013843EA4063E06A43EAC0631C
:102F00000B43D360136843F080731360D36843F0BE
:102F10008073D360FFF774F904462B4B1B6813F0E2
:102F2000007F06D1FFF76CF9001B0228F5D90320BA
:102F30003AE0002038E0002036E0012B36D0224B6A
:102F4000DB6803F00301226A914231D103F0F00201
:102F5000616A0139B2EB011F2CD103F4FE42A16A70
:102F6000B2EB012F28D103F07842E16AB2EBC16FD6
:102F700024D103F4C001226B5208013AB1EB425F45
:102F80001ED103F0C063626B5208013AB3EB426F8B
:102F900018D1002008E001207047012004E0012042
:102FA00002E0012000E0002002B070BD0120FBE73C
:102FB0000120F9E70120F7E70120F5E70120F3E719
:102FC0000120F1E70120EFE7001002400C809F0193
:102FD0001E4B9B6803F00C03042B33D01B4B9B68E8
:102FE00003F00C03082B2FD0184B9B6803F00C0345
:102FF0000C2B01D000207047144BDA6802F003025A
:10300000D868C0F30310431C032A11D01048B0FB4A
:10301000F3F00E4BDB68C3F3062303FB00F00B4B0E
:10302000DB68C3F3416301335B00B0FBF3F070472F
:103030000848B0FBF3F0054BDB68C3F3062303FB42
:1030400000F0ECE702487047024870470010024069
:103050000024F40000127A00002800F0E680F8B5A1
:103060000C460546744B1B6803F00F038B420BD2D2
:10307000714A136823F00F030B431360136803F0C6
:103080000F038B4240F0D3802E6816F001065FD00C
:103090006B68032B2FD0022B4DD0684B1B6813F4A9
:1030A000806F00F0C680FFF793FF654B98424DD9C3
:1030B000624A936823F0F00343F080039360802614
:1030C0005E4A936823F0030369680B439360FFF73C
:1030D00097F80746594B9B6803F00C036A68B3EBFB
:1030E000820F35D0FFF78CF8C01B41F2883398422D
:1030F000F0D9032078E0514B1B6813F0007F01D119
:10310000012071E0FFF7C4FC4D4B98421AD94B4B9C
:103110009B6813F0F00F05D02E6816F00206CFD092
:10312000AB688BB9454A936823F0F00343F0800302
:1031300093608026C4E7414B1B6813F4003FB2D173
:10314000012051E00026BBE70026B9E70026B7E7DB
:103150002B6813F0020F48D013F0040F04D0374A45
:10316000936843F4E06393602B6813F0080F06D074
:10317000324A936823F47C5343F4E06393602F4A0C
:10318000936823F0F003A9680B4393602A4B1B68F4
:1031900003F00F03A34230D82B6813F0040F06D0BE
:1031A000264A936823F4E063E9680B4393602B6835
:1031B00013F0080F07D0214A936823F4605329695C
:1031C00043EAC1039360FFF703FF1C4B9B68C3F303
:1031D00003131C4AD35C03F01F03D8401A4B18603A
:1031E0001A4B1868FEF7F6FEF8BD802ECED1134AB2
:1031F000936823F0F0039360C8E70F4A136823F045
:103200000F0323431360FEF7FBFF06460A4B1B68C0
:1032100003F00F03A342BFD0FEF7F2FF801B41F281
:1032200088339842F2D90320DEE70120704701205D
:10323000DAE70120D8E700BF00200240001002407A
:1032400000B4C4040CB900080000002008000020ED
:10325000014B1868704700BF0000002008B5FFF759
:10326000F7FF054B9B68C3F30223044AD35C03F0CA
:103270001F03D84008BD00BF001002401CB9000861
:1032800008B5FFF7E5FF054B9B68C3F3C223044A6B
:10329000D35C03F01F03D84008BD00BF00100240FC
:1032A0001CB900080F2303600B4B9A6802F003025D
:1032B00042609A6802F0F00282609A6802F4E0626A
:1032C000C2609B68DB0803F4E0630361034B1B6887
:1032D00003F00F030B607047001002400020024013
:1032E000F0B583B00446036813F4002F69D0AE4BE9
:1032F0009B6D13F0805F1ED1AB4B9A6D42F08052F4
:103300009A659B6D03F080530193019B0126A74AA8
:10331000136843F480731360FEF772FF0546A34BF6
:103320001B6813F4807F08D1FEF76AFF401B022858
:10333000F5D9032502E00026E9E7002545BB9A4BB5
:10334000D3F8903013F4407315D0226C9A4212D007
:10335000954AD2F8903023F44073D2F8901041F49B
:103360008031C2F89010D2F8901021F48031C2F868
:103370009010C2F8903013F0010F10D145B98A4A6D
:10338000D2F8903023F44073216C0B43C2F8903094
:10339000C6B1854A936D23F08053936512E0FEF722
:1033A0002FFF0746804BD3F8903013F0020FE5D182
:1033B000FEF726FFC01B41F288339842F2D903255D
:1033C000DCE70025236813F0010F08D0764AD2F815
:1033D000883023F0030361680B43C2F88830236808
:1033E00013F0020F08D0704AD2F8883023F00C0393
:1033F000A1680B43C2F88830236813F0040F08D08B
:10340000694AD2F8883023F03003E1680B43C2F8F0
:103410008830236813F0080F08D0634AD2F8883048
:1034200023F0C00321690B43C2F88830236813F0EE
:10343000200F08D05C4AD2F8883023F440636169D9
:103440000B43C2F88830236813F0400F08D0564A67
:10345000D2F8883023F44053A1690B43C2F8883076
:10346000236813F0800F08D04F4AD2F8883023F435
:103470004043E1690B43C2F88830236813F4807F2E
:1034800008D0494AD2F8883023F44033216A0B43EC
:10349000C2F88830236813F4007F08D0424AD2F87B
:1034A000883023F44023616A0B43C2F888302368D4
:1034B00013F4806F0CD03C4AD2F8883023F44013C8
:1034C000A16A0B43C2F88830A36AB3F5801F57D0B6
:1034D000236813F4006F0CD0334AD2F8883023F4F9
:1034E0004003E16A0B43C2F88830E36AB3F5800F0A
:1034F0004BD0236813F4805F0CD02B4AD2F888306D
:1035000023F04073216B0B43C2F88830236BB3F177
:10351000807F3FD0236813F4005F0CD0224AD2F89A
:10352000883023F04063616B0B43C2F88830636BD3
:10353000B3F1006F33D0236813F4804F0CD01A4AD4
:10354000D2F8883023F04063A16B0B43C2F8883077
:10355000A36BB3F1006F2BD0236813F4004F0CD092
:10356000114AD2F8883023F04053E16B0B43C2F884
:103570008830E36BB3F1805F1FD0284603B0F0BD05
:10358000D36843F48013D360A2E7D36843F4801375
:10359000D360AEE7D36843F48013D360BAE7D3684F
:1035A00043F48013D360C6E700100240007000406F
:1035B000D36843F48013D360CEE7D36843F48033F9
:1035C000D360DAE730B4036A23F001030362036ACD
:1035D0004568826922F4803222F073020C6822432B
:1035E00023F002038C6823431D4CA0420FD004F546
:1035F0000064A0420BD004F54064A04207D004F55B
:103600008064A04203D004F58064A04205D123F079
:103610000803CC68234323F00403114CA0420FD0CD
:1036200004F50064A0420BD004F54064A04207D02A
:1036300004F58064A04203D004F58064A04207D161
:1036400025F4407C4C6944EA0C0C8D6945EA0C0574
:10365000456082614A684263036230BC704700BFC4
:10366000002C014030B4036A23F480730362036AC0
:103670004468C26922F4803222F073020D682A4342
:1036800023F400738D6843EA0523184DA84203D044
:1036900005F50065A84206D123F40063CD6843EA2E
:1036A000052323F48063114DA8420FD005F5006572
:1036B000A8420BD005F54065A84207D005F5806506
:1036C000A84203D005F58065A84207D124F4405CE8
:1036D0004C694CEA041C8C694CEA04144460C261D5
:1036E0004A68C263036230BC704700BF002C0140CF
:1036F00030B4036A23F480530362036A4468C269E6
:1037000022F0807222F4E6420D6842EA052223F498
:1037100000538D6843EA0533174DA84203D005F5E1
:103720000065A84206D123F40043CD6843EA05337F
:1037300023F48043104DA8420FD005F50065A84240
:103740000BD005F54065A84207D005F58065A84275
:1037500003D005F58065A84207D124F4404C4C699C
:103760004CEA841C8C694CEA84144460C2614A6847
:103770000264036230BC7047002C014030B4036A1D
:1037800023F480330362036A4468026D22F48032BA
:1037900022F070020D682A4323F400338D6843EA57
:1037A00005430F4DA8420FD005F50065A8420BD088
:1037B00005F54065A84207D005F58065A84203D00D
:1037C00005F58065A84204D124F480344D6944EAAB
:1037D0000524446002654A688264036230BC704715
:1037E000002C014030B4036A23F480130362036A9F
:1037F0004468026D22F0807222F4E0420D6842EAD1
:10380000052223F400138D6843EA05530F4DA842A7
:103810000FD005F50065A8420BD005F54065A8421C
:1038200007D005F58065A84203D005F58065A8425C
:1038300004D124F480244D6944EA8524446002655F
:103840004A68C264036230BC704700BF002C01406C
:1038500010B4036A046A24F001040462846924F049
:10386000F00C4CEA021223F00A030B43826103625C
:1038700010BC704710B4046A24F010040462846918
:10388000036A24F4704C4CEA023223F0A00343EAAA
:1038900001138261036210BC7047836823F44013F4
:1038A00023F070030B4343F007038360704700006D
:1038B00090F83D30DBB2012B32D1022380F83D304D
:1038C0000268D36843F00103D3600368174A934248
:1038D00018D0B3F1804F15D0A2F59432934211D095
:1038E00002F5806293420DD002F59632934209D0E0
:1038F00002F54062934205D01A6842F001021A6054
:103900000020704799680A4A0A40062A0AD0B2F590
:10391000803F09D01A6842F001021A600020704707
:10392000012070470020704700207047002C0140A4
:10393000070001000268D36823F00103D360036825
:10394000196A41F21112114208D1196A44F2444233
:10395000114203D11A6822F001021A60012380F893
:103960003D30002070477047704770477047704780
:1039700010B5044603681A6912F0020F12D0DA6813
:1039800012F0020F0ED06FF002021A6101230377CA
:1039900003689B6913F0030F00F09F80FFF7E5FFBA
:1039A0000023237723681A6912F0040F13D0DA6812
:1039B00012F0040F0FD06FF004021A610223237774
:1039C00023689B6913F4407F00F08D802046FFF749
:1039D000CCFF0023237723681A6912F0080F12D056
:1039E000DA6812F0080F0ED06FF008021A61042393
:1039F00023772368DB6913F0030F7BD02046FFF7A2
:103A0000B4FF0023237723681A6912F0100F12D035
:103A1000DA6812F0100F0ED06FF010021A6108234E
:103A200023772368DB6913F4407F6AD02046FFF7D1
:103A30009CFF0023237723681A6912F0010F03D03B
:103A4000DA6812F0010F63D123681A6912F0800F4F
:103A500003D0DA6812F0800F61D123681A6912F47A
:103A6000807F03D0DA6812F0800F5FD123681A6973
:103A700012F0400F03D0DA6812F0400F5DD12368D6
:103A80001A6912F0200F03D0DA6812F0200F5BD110
:103A900023681A6912F4801F03D0DA6812F4801FB9
:103AA00059D123681A6912F4001F03D0DA6812F49E
:103AB000001F57D123681A6912F4800F03D0DA6807
:103AC00012F4800F55D123681A6912F4000F03D045
:103AD000DA6812F4000F53D110BDFFF745FF2046FE
:103AE000FFF744FF5CE72046FFF73EFF2046FFF765
:103AF0003DFF6EE72046FFF737FF2046FFF736FF12
:103B00007FE72046FFF730FF2046FFF72FFF90E7C3
:103B10006FF001021A612046FDF7A2FE94E76FF0F4
:103B200080021A61204600F0B2FC96E76FF48072C2
:103B30001A61204600F0ACFC98E76FF040021A6171
:103B40002046FFF714FF9AE76FF020021A61204623
:103B500000F09CFC9CE76FF480121A61204600F094
:103B600098FC9EE76FF400121A61204600F092FC68
:103B7000A0E76FF480021A61204600F08CFCA2E7F7
:103B80006FF400021A61204600F086FCA4E70000F2
:103B900003682C4A90420ED0B0F1804F0BD0A2F5B2
:103BA0009432904207D002F58062904203D002F531
:103BB0009632904203D123F070034A681343214A9E
:103BC00090421AD0B0F1804F17D0A2F594329042B3
:103BD00013D002F5806290420FD002F596329042E7
:103BE0000BD002F54062904207D002F5806290420D
:103BF00003D002F58062904203D123F44073CA6877
:103C0000134323F080034A69134303608B68C36244
:103C10000B6883620B4B98420FD003F50063984208
:103C20000BD003F54063984207D003F580639842B8
:103C300003D003F58063984201D10B69036301232C
:103C400043617047002C014060B310B5044690F802
:103C50003D3013B3022384F83D30214651F8040B64
:103C6000FFF796FF012384F8483084F83E3084F84B
:103C70003F3084F8403084F8413084F8423084F892
:103C8000433084F8443084F8453084F8463084F872
:103C9000473084F83D30002010BD80F83C30FEF7FE
:103CA000DFF8D7E70120704760B310B5044690F8FD
:103CB0003D3013B3022384F83D30214651F8040B04
:103CC000FFF766FF012384F8483084F83E3084F81B
:103CD0003F3084F8403084F8413084F8423084F832
:103CE000433084F8443084F8453084F8463084F812
:103CF000473084F83D30002010BD80F83C30FFF79D
:103D000032FED7E701207047002857D070B50D4626
:103D1000044690F83D30002B4BD0022384F83D3010
:103D20002268936823F4A03323F0070393602146AD
:103D300051F8040BFFF72CFF21688A688B690E6A23
:103D40002868104323F4407C2CF0030CAA68AB696C
:103D500042EA032343EA0C0323F47C4323F0FC03ED
:103D6000EA69D5F80CC04CEA022C4CEA030C2A6A2A
:103D700013032A6943EA021343EA0C0326F0AA0656
:103D80006A686D6942EA05123243886021688B6176
:103D900023681A62012384F8483084F83E3084F89E
:103DA0003F3084F8443084F8453084F83D300020BA
:103DB00070BD80F83C30FEF717F8AEE70120704781
:103DC00030B4036A23F010030362036A4468826913
:103DD00022F0807222F4E6420D6842EA052223F0C6
:103DE00020038D6843EA0513174DA84203D005F55B
:103DF0000065A84206D123F08003CD6843EA05138D
:103E000023F04003104DA8420FD005F50065A842ED
:103E10000BD005F54065A84207D005F58065A8429E
:103E200003D005F58065A84207D124F4406C4C69A5
:103E30004CEA840C8C694CEA8404446082614A68D0
:103E40008263036230BC7047002C014038B590F8A3
:103E50003C30012B00F0958004460D46012380F88C
:103E60003C30142A00F28880DFE802F00B86868658
:103E70001F86868634868686488686865D86868602
:103E800071000068FFF79EFB2268936943F0080306
:103E900093612268936923F0040393612268936914
:103EA00029690B439361002067E00068FFF788FFF2
:103EB0002268936943F4006393612268936923F451
:103EC0008063936122689369296943EA01239361BE
:103ED000002052E00068FFF7C5FB2268D36943F079
:103EE0000803D3612268D36923F00403D3612268F5
:103EF000D36929690B43D36100203EE00068FFF7D6
:103F0000F7FB2268D36943F40063D3612268D36965
:103F100023F48063D3612268D369296943EA0123CA
:103F2000D361002029E00068FFF728FC2268136DA8
:103F300043F0080313652268136D23F0040313652F
:103F40002268136D29690B431365002015E0006892
:103F5000FFF748FC2268136D43F400631365226881
:103F6000136D23F4806313652268136D296943EA96
:103F700001231365002000E00120002384F83C3079
:103F800038BD0220FCE710B4846824F47F4C42EA78
:103F900003220A4342EA0C02826010BC7047000010
:103FA00090F83C30012B00F08F8010B504460123BF
:103FB00080F83C30022380F83D3002689068434B23
:103FC000034093600B68702B55D031D8502B6CD0C8
:103FD0000CD9602B2AD1CA6849682068FFF74AFCCF
:103FE00060212068FFF759FC002035E0402B0AD102
:103FF000CA6849682068FFF72BFC40212068FFF75A
:104000004CFC002028E05BD8202B07D003D9302BB4
:1040100004D0012020E00BB1102B05D119462068F7
:10402000FFF73BFC002017E0012015E0012013E022
:10403000B3F5005F2CD00BD9254A9342EED012D9AC
:10404000244A9342EAD030329342E7D0012003E081
:10405000B3F5805F36D10020012384F83D30002382
:1040600084F83C3010BDB3F1101FD7D0103A934202
:10407000D4D00120F0E7CB684A6889682068FFF750
:1040800082FF2268936843F0770393600020E3E7A0
:10409000CB684A6889682068FFF775FF22689368D3
:1040A00043F4804393600020D6E7CA6849682068DB
:1040B000FFF7CEFB50212068FFF7EFFB0020CBE796
:1040C0000120C9E70120C7E7022070478800CEFF22
:1040D000300010004000100001F01F01012303FA1E
:1040E00001FC036A23EA0C030362036A02FA01F18A
:1040F0000B4303627047000010B5044608460029D0
:1041000047D194F83E30DBB2013B18BF0123002BAE
:1041100040F09480002867D1022384F83E300122C9
:1041200001462068FFF7D8FF2368474A93420FD023
:1041300002F5006293420BD002F54062934207D031
:1041400002F58062934203D002F58062934203D16C
:104150005A6C42F400425A6423683B4A93425FD04F
:10416000B3F1804F5CD0A2F59432934258D002F55F
:104170008062934254D002F59632934250D002F5B9
:10418000406293424CD01A6842F001021A6000204B
:1041900055E004290CD0082911D00C2916D010297B
:1041A0001BD094F84330DBB2013B18BF0123AEE7CC
:1041B00094F83F30DBB2013B18BF0123A7E794F826
:1041C0004030DBB2013B18BF0123A0E794F8413037
:1041D000DBB2013B18BF012399E794F84230DBB210
:1041E000013B18BF012392E7042809D008280BD00F
:1041F0000C280DD010280FD0022384F843308EE70E
:10420000022384F83F308AE7022384F8403086E7AF
:10421000022384F8413082E7022384F842307EE7AB
:1042200099680A4A0A40062A0AD0B2F5803F09D0A6
:104230001A6842F001021A60002000E0012010BD5F
:104240000020FCE70020FAE7002C014007000100F5
:1042500038B5044690F83E00C0B294F83F3094F868
:104260004420D2B294F845C00D46B1B9012849D1D5
:10427000012A48D1022384F83E3084F844307DB3CB
:10428000042D39D0012200212068FFF725FF0122EB
:1042900004212068FFF720FF27E0DBB25FFA8CFCE7
:1042A000042912D0012833D1012B2CD1012A31D17C
:1042B000BCF1010F30D1022384F83E3084F83F3046
:1042C00084F8443084F84530D9E7012B1CD1BCF187
:1042D000010F1BD1022384F83F3084F84530CEE72C
:1042E000012200212068FFF7F7FE2268136843F0DF
:1042F00001031360002006E0012204212068FFF77B
:10430000EBFEF2E7012038BD0120FCE71846FAE792
:104310000120F8E71846F6E71046F4E738B50446FA
:104320000D4661B104292BD0002211460068FFF729
:10433000D3FE002204212068FFF7CEFE04E0002215
:1043400011460068FFF7C8FE2368196A41F211128E
:10435000114208D1196A44F24442114203D11A6849
:1043600022F001021A608DB1042D0FD0012384F8D0
:104370003E3084F83F3084F8443084F845300DE016
:10438000002204210068FFF7A7FEDDE745B90123FD
:1043900084F83E3005BB012384F84430002038BD4A
:1043A000042D09D0082D0BD00C2D0DD0102D0FD0C1
:1043B000012384F84330EDE7012384F83F30E9E737
:1043C000012384F84030E5E7012384F84130E1E738
:1043D000012384F84230DDE7042D05D0082D07D0F5
:1043E000012384F84730D9E7012384F84530D5E725
:1043F000012384F84630D1E790F83C30012B40D0BF
:1044000030B4012380F83C30022380F83D3002684C
:10441000536894681C4DAA4203D005F50065AA4272
:1044200003D123F470034D682B4323F0007323F072
:1044300070030D682B4353600368134A934212D0F4
:10444000B3F1804F0FD0A2F5943293420BD002F516
:104450008062934207D002F59632934203D002F570
:104460004062934204D124F080048A6814439C6023
:10447000012380F83D30002380F83C30184630BCE2
:1044800070470220704700BF002C01407047704702
:1044900070477047704770477047026852E8003FA6
:1044A00023F4907342E800310029F6D1026802F14A
:1044B000080353E8003F23F0805323F00103083240
:1044C00042E800310029F1D1C36E012B06D0202330
:1044D000C0F888300023C36603677047026852E85B
:1044E000003F23F0100342E800310029F6D1EEE747
:1044F000704708B5026852E8003F23F0400342E8E5
:1045000000310029F6D12023C0F88430002343670E
:10451000FFF7EEFF08BD704708B5806A0023A0F8DA
:104520005E30A0F85630FFF7F6FF08BD7047000078
:1045300070B504460168CB6908688D6840F60F02C3
:104540001A4008D113F0200F05D010F0200F34D1FD
:1045500015F0805F31D12AB1954A2A4033D1954E6A
:10456000304230D1E26E012A00F0C38013F4801F84
:1045700003D015F4800F40F05B8113F0800F07D05B
:1045800010F0800F40F05B8115F4000F40F0578170
:1045900013F0400F03D010F0400F40F0578113F498
:1045A000000F03D010F0804F40F0548113F0807F53
:1045B00002D00028C0F2528170BD236F002BFBD0C7
:1045C00020469847F8E713F0010F09D010F4807FD8
:1045D00006D001260E62D4F88C103143C4F88C103A
:1045E00013F0020F0BD015F0010F08D0216802263E
:1045F0000E62D4F88C1041F00401C4F88C1013F052
:10460000040F0BD015F0010F08D0216804260E62AC
:10461000D4F88C1041F00201C4F88C1013F0080F8C
:104620000BD010F0200F00D13AB12268082111629E
:10463000D4F88C200A43C4F88C2013F4006F0CD0FB
:1046400010F0806F09D022684FF400611162D4F835
:104650008C2042F02002C4F88C20D4F88C20002A50
:10466000AAD013F0200F09D010F0200F02D115F0BE
:10467000805F03D0236F0BB120469847D4F88C207D
:1046800023689B6813F0400F02D112F0280F29D045
:104690002046FFF702FF23689B6813F0400F1DD0F0
:1046A000226802F1080353E8003F23F04003083278
:1046B00042E800310029F3D1E36F5BB13E4A9A63CF
:1046C000E06FFDF731FE00283FF476AFE06F836BBB
:1046D000984771E72046FFF71EFF6DE72046FFF77A
:1046E0001AFF69E72046FFF716FF0023C4F88C3055
:1046F00062E713F0100F3FF439AF10F0100F3FF4E2
:1047000035AF10230B6223689B6813F0400F55D020
:10471000E26F13685B689BB2002B3FF44DAFB4F8B7
:104720005C1099427FF648AFA4F85E3013681B68AE
:1047300013F0200F31D1226852E8003F23F4807338
:1047400042E800310029F6D1226802F1080353E85B
:10475000003F23F00103083242E800310029F3D181
:10476000226802F1080353E8003F23F040030832B7
:1047700042E800310029F3D12023C4F88830002317
:10478000E366226852E8003F23F0100342E800315C
:104790000029F6D1E06FFDF791FDB4F85C10B4F894
:1047A0005E309BB2C91A89B22046FFF7BFFE03E70D
:1047B000010000102001000419450008B4F85C1045
:1047C000B4F85E309BB2C91A89B2B4F85E309BB2BD
:1047D000002B3FF4F1AE00293FF4EEAE226852E820
:1047E000003F23F4907342E800300028F6D122689D
:1047F00002F1080353E8003F23F0805323F0010344
:10480000083242E800300028F1D12023C4F8883073
:104810000023E3662367226852E8003F23F0100379
:1048200042E800300028F6D12046FFF77FFEC3E6BD
:104830004FF480130B62204600F0B0FEBCE6636FBD
:10484000002B3FF4B9AE20469847B5E62046FFF767
:1048500050FEB1E6204600F0A3FEADE6204600F093
:104860009EFEA9E608B5B0F86030D0F88820222A6C
:1048700005D00268936943F00803936108BD02689C
:10488000516ADBB2826D0B401370836D0133836517
:10489000B0F85E309BB2013B9BB2A0F85E30B0F83E
:1048A0005E309BB2002BE9D1026852E8003F23F44E
:1048B000907342E800310029F6D1026802F1080342
:1048C00053E8003F23F00103083242E80031002999
:1048D000F3D12023C0F8883000230367C36E012B77
:1048E00016D10023C366026852E8003F23F010038C
:1048F00042E800310029F6D10368DA6912F0100F9E
:1049000001D010221A62B0F85C10FFF70FFEB5E775
:10491000FCF78AFFB2E708B5B0F86020D0F888301D
:10492000222B05D00268936943F00803936108BD08
:1049300003685B6A816D13400B80836D023383656E
:10494000B0F85E309BB2013B9BB2A0F85E30B0F88D
:104950005E309BB2002BEAD1026852E8003F23F49C
:10496000907342E800310029F6D1026802F1080391
:1049700053E8003F23F00103083242E800310029E8
:10498000F3D12023C0F8883000230367C36E012BC6
:1049900016D10023C366026852E8003F23F01003DB
:1049A00042E800310029F6D10368DA6912F0100FED
:1049B00001D010221A62B0F85C10FFF7B7FDB6E71D
:1049C000FCF732FFB3E700002DE9F843B0F8606070
:1049D0000368DD69D3F80090D3F80880D0F8882008
:1049E000222A05D09A6942F008029A61BDE8F8834C
:1049F0000446B0F8687008E0D4F88C30002B4CD135
:104A0000B4F85E309BB2002B4ED0002F00F08780B0
:104A100015F0200F00F083802368596AF3B2A26D6D
:104A20000B401370A36D0133A365B4F85E309BB2E5
:104A3000013B9BB2A4F85E302368DD6915F0070FD7
:104A4000DED015F0010F09D019F4807F06D00122C5
:104A50001A62D4F88C301343C4F88C3015F0020F6E
:104A60000BD018F0010F08D0236802221A62D4F884
:104A70008C3043F00403C4F88C3015F0040FBBD025
:104A800018F0010FB8D0236804221A62D4F88C30D1
:104A900043F00203C4F88C30AEE72046FFF73BFD3D
:104AA0000023C4F88C30ABE7226852E8003F23F4BF
:104AB000807342E800310029F6D1226802F1080330
:104AC00053E8003F23F0805323F00103083242E80B
:104AD00000310029F1D12023C4F888300023236756
:104AE000E36E012B03D02046FCF79EFE8DE70023EA
:104AF000E366226852E8003F23F0100342E80031E9
:104B00000029F6D12368DA6912F0100F01D01022C3
:104B10001A62B4F85C102046FFF708FD75E7B4F898
:104B20005E309BB2002B3FF461AFB4F868209A422C
:104B30007FF65CAF226802F1080353E8003F23F0E0
:104B40008053083242E800310029F3D1054B236736
:104B5000226852E8003F43F0200342E80031002978
:104B6000F6D143E7654800082DE9F843B0F86060E6
:104B70000368DD69D3F80090D3F80880D0F8882066
:104B8000222A05D09A6942F008029A61BDE8F883AA
:104B90000446B0F8687008E0D4F88C30002B4BD194
:104BA000B4F85E309BB2002B4DD0002F00F0868011
:104BB00015F0200F00F0828023685B6AA26D3340FD
:104BC0001380A36D0233A365B4F85E309BB2013B42
:104BD0009BB2A4F85E302368DD6915F0070FDFD0C3
:104BE00015F0010F09D019F4807F06D001221A6256
:104BF000D4F88C301343C4F88C3015F0020F0BD06E
:104C000018F0010F08D0236802221A62D4F88C3001
:104C100043F00403C4F88C3015F0040FBCD018F036
:104C2000010FB9D0236804221A62D4F88C3043F003
:104C30000203C4F88C30AFE72046FFF76CFC00237A
:104C4000C4F88C30ACE7226852E8003F23F480734C
:104C500042E800310029F6D1226802F1080353E846
:104C6000003F23F0805323F00103083242E8003173
:104C70000029F1D12023C4F8883000232367E36E94
:104C8000012B03D02046FCF7CFFD8EE70023E3661F
:104C9000226852E8003F23F0100342E80031002967
:104CA000F6D12368DA6912F0100F01D010221A62CF
:104CB000B4F85C102046FFF739FC76E7B4F85E30B4
:104CC0009BB2002B3FF462AFB4F868209A427FF6A3
:104CD0005DAF226802F1080353E8003F23F08053E0
:104CE000083242E800310029F3D1064B23672268DD
:104CF00052E8003F43F0200342E800310029F6D19A
:104D000044E700BF1749000870B50446016883688E
:104D10000269134342691343C269134308688B4A0B
:104D2000024013430B602268536823F44053E16848
:104D30000B435360A1692268854B9A4201D0236AD4
:104D40001943936823F06E4323F430630B4393605D
:104D50002268D36A23F00F03616A0B43D36223688E
:104D60007C4A934223D07C4A934234D07B4A93427C
:104D70004AD07B4A934259D0754A934268D0102258
:104D800073498B4200F09580E069B0F5004F00F068
:104D9000D280082A00F24F81DFE812F012013401BC
:104DA00010014D0137014D014D014D013A0102F550
:104DB0005842D2F8882002F00302032A09D8DFE81B
:104DC00002F002045C060122DAE70422D8E7082296
:104DD000D6E71022D4E702F5E632D2F8882002F0B6
:104DE0000C020C2A0ED8DFE802F0070D0D0D090D9C
:104DF0000D0D4A0D0D0D0B000022C1E70422BFE787
:104E00000822BDE71022BBE702F5E432D2F8882081
:104E100002F03002202A34D004D8A2B3102A34D1B0
:104E20000422ADE7302A32D10822A9E702F5E232A6
:104E3000D2F8882002F0C002802A2AD004D852B3C7
:104E4000402A2AD104229BE7C02A28D1082297E7CA
:104E500002F5C832D2F8882002F44062B2F5006F41
:104E60001FD005D8FAB1B2F5806F1ED1042287E7B2
:104E7000B2F5406F1BD1082282E7022280E70222AE
:104E80007EE702227CE700227AE7102278E71022F0
:104E900076E7022274E7002272E7102270E7102200
:104EA0006EE702226CE700226AE7102268E7102210
:104EB00066E7082A00F2AF80DFE802F008AD3BADFC
:104EC00038ADADAD05004FF4004004E0FEF7C6F983
:104ED000002800F0A280626A224B33F81220B0FB57
:104EE000F2F3656805EB4501994200F29880B3EB57
:104EF000053F00F29680002633463146FBF7E0FD81
:104F0000090241EA106100026B08C0182A463346C4
:104F100041F10001FBF7D4FDA0F54072124B9A421B
:104F200000F281802368D860304662E0FEF750F8D6
:104F3000CEE70E48CFE7082A77D8DFE802F0193924
:104F400005763C7676761D00084815E0F369FFCFBC
:104F5000008000400038014000440040004800400C
:104F6000004C004024B90008FFFC0F000024F400AE
:104F7000FEF774F900285AD0626A324B33F81230C7
:104F8000B0FBF3F06268530803EB4000B0FBF2F0B3
:104F9000A0F110024FF6EF739A424AD883B223F081
:104FA0000F03C0F3420018432368D860002020E0BC
:104FB000FEF766F9DEE7FEF70BF8DBE7224803E0D1
:104FC000FEF74CF9002838D0626A1E4B33F81230D5
:104FD000B0FBF3F0636800EB5300B0FBF3F0A0F11B
:104FE00010024FF6EF739A4229D8236880B2D86036
:104FF00000200123A4F86A30A4F868300023236756
:10500000636770BDFEF73CF9DCE7FDF7E1FFD9E728
:105010004FF40040D8E70120EBE70020E9E701204A
:10502000E7E70120E5E70120E3E70120E1E70020D1
:10503000DFE70120DDE70120DBE70020D9E70120E1
:10504000D7E700BF24B900080024F400836A13F0F6
:10505000010F06D00268536823F40033C16A0B4382
:105060005360836A13F0020F06D00268536823F47A
:105070008033016B0B435360836A13F0040F06D037
:105080000268536823F48023416B0B435360836AA7
:1050900013F0080F06D00268536823F40043816BB5
:1050A0000B435360836A13F0100F06D002689368B5
:1050B00023F48053C16B0B439360836A13F0200F7A
:1050C00006D00268936823F40053016C0B4393608D
:1050D000836A13F0400F0AD00268536823F48013E8
:1050E000416C0B435360436CB3F5801F0BD0836A54
:1050F00013F0800F06D00268536823F40023C16CBC
:105100000B43536070470268536823F4C003816CFB
:105110000B435360EBE72DE9F84305460F4616466F
:105120009946DDF820802C68E46937EA04030CBF57
:105130004FF0010C4FF0000CB44557D1B8F1FF3FD0
:10514000F1D0FDF75DF8A0EB090040452FD8B8F18C
:10515000000F2CD02B681A6812F0040FE3D0DA6924
:1051600012F4006FDFD04FF400621A622A6852E82E
:10517000003F23F4D07342E800310029F6D12A68B9
:1051800002F1080353E8003F23F00103083242E82C
:1051900000310029F3D12023C5F88430C5F88830C8
:1051A000C5F88C30002385F8803003201FE02A6882
:1051B00052E8003F23F4D07342E800310029F6D1D1
:1051C0002A6802F1080353E8003F23F00103083284
:1051D00042E800310029F3D12023C5F88430C5F816
:1051E0008830002385F88030032000E00020BDE8EF
:1051F000F8832DE9F04182B01E46D0F88430202B90
:1052000058D104460D469046002957D0002A57D061
:1052100090F88030012B55D0012380F88030002396
:10522000C0F88C302123C0F88430FCF7E9FF074632
:10523000A4F85480A4F85680A368B3F5805F05D025
:105240004FF00008002384F8803014E0236913B184
:105250004FF00008F6E7A8460025F3E738F8023BD0
:105260002268C3F308039362B4F8562092B2013A5D
:1052700092B2A4F85620B4F856309BB273B100969F
:105280003B46002280212046FFF745FFE0B9002D74
:10529000E4D015F8012B23689A62E5E700963B46B7
:1052A000002240212046FFF736FF78B92023C4F8BA
:1052B000843000E0022002B0BDE8F0810120FAE76E
:1052C0000120F8E70220F6E70320F4E70320F2E7E5
:1052D00030B583B004460023C0F88C30FCF790FF53
:1052E00005462268126812F0080F0FD123681B6868
:1052F00013F0040F18D12023C4F88430C4F8883088
:105300000020E06684F8800003B030BD6FF07E437B
:105310000093034600224FF400112046FFF7FBFEE6
:105320000028E3D00320EFE76FF07E4300932B4685
:1053300000224FF480012046FFF7EDFE0028DAD06E
:105340000320E1E778B310B50446D0F884300BB3FE
:105350002423C4F884302268136823F00103136007
:105360002046FFF7D1FC012813D0A36ABBB92268FD
:10537000536823F4904353602268936823F02A0310
:1053800093602268136843F0010313602046FFF71F
:105390009FFF10BD80F88030FCF7D2FDD8E7204693
:1053A000FFF754FEE3E701207047000010B4816569
:1053B000A0F85C20A0F85E20002303678368B3F5A3
:1053C000805F06D0A3B9036973B9FF23A0F86030EA
:1053D00014E0036923B940F2FF13A0F860300DE038
:1053E000FF23A0F8603009E07F23A0F8603005E0DB
:1053F000B3F1805F30D00023A0F860300023C0F804
:105400008C302223C0F88830016801F1080353E88A
:10541000003F43F00103083141E80034002CF3D190
:10542000436EB3F1005F21D08368B3F5805F48D04D
:105430002C4B0367002380F880300369002B46D093
:10544000026852E8003F43F4907342E800310029BB
:10545000F6D1002010BC704703691BB97F23A0F868
:105460006030CBE73F23A0F86030C7E7B0F8683082
:105470009342D9D88368B3F5805F1CD01A4B036779
:10548000002380F88030036943B1026852E8003F8E
:1054900043F4807342E800310029F6D1026802F13A
:1054A000080353E8003F43F08053083242E80031DC
:1054B0000029F3D1CDE70369002BDFD10B4B036744
:1054C000DEE70369002BB3D1094B0367B2E702683B
:1054D00052E8003F43F0200342E800310029F6D1B2
:1054E000B7E700BF65480008C9490008694B0008D4
:1054F0001749000838B5D0F88830202B1ED1F9B1F3
:1055000002B390F88030012B1ED0012380F8803048
:105510000023C36603680D4CA3420CD05B6813F4F0
:10552000000F08D0046854E8003F43F0806344E86B
:105530000035002DF6D1FFF739FF00E0022038BD1D
:105540000120FCE70120FAE70220F8E70080004094
:10555000436E2BB90123A0F86A30A0F86830704779
:1055600030B403689A68C2F342629968490F094DE2
:105570006B5CDB00084C615C93FBF1F3A0F86A30D4
:10558000AB5CDB00A25C93FBF2F3A0F8683030BCAC
:10559000704700BF44B900083CB900087047704725
:1055A000704790F88030012B18D0012380F88030AC
:1055B0002423C0F8843003681A68196821F00101B7
:1055C000196022F000520023436601680A6020221D
:1055D000C0F8842080F88030184670470220704759
:1055E00038B590F88030012B1DD00446012380F897
:1055F00080302423C0F8843003681D681A6822F0C4
:1056000001021A600268936823F0604319439160B5
:10561000FFF79EFF23681D602023C4F8843000201C
:1056200084F8800038BD0220FCE738B590F880305F
:10563000012B1DD00446012380F880302423C0F8BC
:10564000843003681D681A6822F001021A6002683B
:10565000936823F0606319439160FFF779FF236833
:105660001D602023C4F88430002084F8800038BDF9
:105670000220FCE70A22002100F000BA014B186862
:10568000704700BF0C00002070B50D4E0D4D761B0D
:10569000B61006D0002455F8043B01349847A642C2
:1056A000F9D1094E094D761B06F01AF9B61006D04D
:1056B000002455F8043B01349847A642F9D170BD47
:1056C00054BD000854BD00085CBD000854BD00086E
:1056D000830730B548D0541E002A3FD0CAB20346D3
:1056E00001E0013C3AD303F8012B9D07F9D1032CCB
:1056F0002DD9CDB245EA05250F2C45EA054536D909
:10570000A4F1100222F00F0C03F1200EE6444FEA40
:10571000121C03F1100242E9045542E9025510320D
:105720007245F8D10CF1010214F00C0F03EB0212D8
:1057300004F00F0C13D0ACF1040323F00303043383
:10574000134442F8045B9342FBD10CF003042CB1E8
:10575000CAB21C4403F8012B9C42FBD130BD644605
:105760001346002CF4D1F9E703461446BFE71A4666
:10577000A446E0E70FB400B5074983B004AB08685E
:1057800053F8042B8168019300F08EF903B05DF8A3
:1057900004EB04B0704700BF0C00002000294FF458
:1057A00080630CBF0222002200F000B82DE9F04314
:1057B000694CD4F8008083B004460E4617461D4657
:1057C000B8F1000F03D0D8F83830002B77D0022F73
:1057D00005D0012F00F2AC80002DC0F2A980636ECD
:1057E000DA0752D52146404603F008F8216B41B153
:1057F00004F14003994202D0404603F02BF9002304
:105800002363B4F90CC000231CF0800FA361636014
:1058100064D12CF44A6C2CF0030C022FA4F80CC0B9
:105820006AD001AB6A462146404603F0B9FAA38923
:105830001843A081002D2FD0002E2ED0D8F838305C
:10584000002B38D0009B2660AB42B4F90C301CBF53
:1058500043F40063A381012F04BF43F00103A3813C
:105860009AB213F00803C4E904652CD0D1075DD5C2
:105870006D42A561656E002315F00105A36027D078
:105880000025284603B0BDE8F083A3899B05A9D471
:10589000A06D03F011FAA5E7009D284603F0B0FAC9
:1058A0000646002847D0A38943F08003A381D8F897
:1058B0003830002BC6D1404602F0D4FFC2E7404644
:1058C00002F0D0FF83E7A360656E15F00105D7D124
:1058D000930524D5284603B0BDE8F08321694046EE
:1058E00003F0B8F8B4F90CC02CF44A6C2CF0030C9B
:1058F000022FA4F80CC094D10025002204F1430328
:10590000A2600122C4E904322360636E4CF0020CF1
:10591000D807A4F80CC0DDD41CF4007FDAD1A06D48
:1059200003F0CCF9284603B0BDE8F083A560CBE7CF
:105930004FF0FF35CEE7DDF80090A94504D048468A
:1059400003F05EFA064620B9B4F90CC04FF0FF35FB
:10595000D3E74D46A7E700BF0C0000202DE9F04F2C
:10596000814645488E4675461EF801CB10F80C401E
:1059700014F00804F7D1BCF12D0FE34654D0BCF16C
:105980002B0F08BF9EF800B06FF0004808BF05F16C
:10599000020E1BB1102B4FD01F4604E0BBF1300F9D
:1059A00055D00A231F460025B8FBF7F6284607FB0B
:1059B000168A07E0864215D329D007FB00C00125CF
:1059C0001EF801BBABF1300CBCF1090F06D9ABF1ED
:1059D000410CBCF1190F08D8ABF1370C63450DDD54
:1059E000002DE7DA4FF0FF35EAE7ABF1610CBCF1CF
:1059F000190F03D8ABF1570C6345F1DC002D0BDB1D
:105A000004B140420AB195BB1160BDE8F08FE24598
:105A1000D3DA4FF0FF35D3E72223C9F800301AB3A9
:105A20000EF1FF314046EFE79EF800B04FF000481E
:105A300005F1020E0124ACE7BBF1300FACD19EF8AA
:105A4000000000F0DF00582807D01F46ABE79EF8A3
:105A5000003003F0DF03582B0BD110279EF801B064
:105A60003B460EF1020E9EE74046BDE8F08F8046B1
:105A7000D6E708231F4696E7B5B90008012A09D0E2
:105A8000242A134606D8074A844610680A46614607
:105A9000FFF764BF10B5FFF7F1FD16230360002088
:105AA00010BD00BF0C0000202DE9F04FD5B01C4602
:105AB000079191460546099003F0F6F8026817929F
:105AC00010460E94FBF77CFA16901DB1AB6B002BC1
:105AD00000F02A82079A536EDD0740F13881B2F94F
:105AE0000C2091B28F0409D4079B42F400529A8192
:105AF00091B21A465B6E23F4005353660E0740F1D1
